:020000040800F2
:1000000090090020114900084D0300084F03000823
:1000100053030008570300085B03000800000000BA
:100020000000000000000000000000005F03000866
:100030006103000800000000630300086503000876
:100040002B4900082B4900082B4900082B490008C0
:100050002B4900082B4900082B4900082B490008B0
:100060002B4900082B4900082B4900082B490008A0
:100070002B4900082B4900082B4900082B49000890
:100080002B4900082B4900082B4900082B49000880
:100090002B4900082B4900082B4900087903000868
:1000A0002B490008C52000082B4900082B490008EF
:1000B0002B4900085F0400082B4900082B49000861
:1000C0002B4900082B4900082B4900082B49000840
:1000D0002B4900082B4900081B0C00082B4900087D
:1000E000E30300082B4900082B4900082B490008AE
:1000F0002B4900082B4900082B4900082B49000810
:100100002B4900082B4900082B4900082B490008FF
:100110002B4900082B4900082B4900082B490008EF
:100120002B4900082B4900082B4900082B490008DF
:1001300000F002F800F04AF80AA090E8000C8244AF
:100140008344AAF10107DA4501D100F03FF8AFF28C
:10015000090EBAE80F0013F0010F18BFFB1A43F0A5
:1001600001031847D8560000F85600000A4410F85A
:10017000014B14F00F0508BF10F8015B240908BFFC
:1001800010F8014B6D1E05D010F8013B6D1E01F8F3
:10019000013BF9D1641E03D0641E01F8015BFBD161
:1001A0009142E4D37047000000230024002500267C
:1001B000103A28BF78C1FBD8520728BF30C148BFCA
:1001C0000B6070471FB51FBD10B510BD04F0C3FB19
:1001D0001146FFF7F7FF00F009F804F0E1FB03B464
:1001E000FFF7F2FF03BC04F0E5FB000000F0A8FD00
:1001F00001F092FE8EE04848007820B102F04DF800
:10020000002045490870454800780028F2D00020B9
:10021000424908704248008844F2E811081A4149EE
:10022000088008460088A0F580407438062190FBBD
:10023000F1F000EB400040003B49086008460068D0
:10024000002802DC0020086006E0374800687E28AD
:1002500002DB7E2034490860344800783449087055
:1002600031480078487000F0AAFD32480078401C00
:100270003049087008460078022846DA2E4800788F
:100280002E4908600846006818B900202C4908600B
:1002900019E02A480068012804D140F2EE202849DC
:1002A000086010E025480068022804D14FF461700E
:1002B0002349086007E021480068032803D14FF470
:1002C0007A701F4908601E4800681E490968884204
:1002D0000FDD1C480068401D1A4908600846006888
:1002E00017490968884208DD154800681549086003
:1002F00003E013480068134908601248008800B200
:100300001149088000F00AFE04E000200949087045
:1003100002F084F86FE70000D8010020AC01002053
:100320002C0100202C000020D0000020D80000204C
:10033000B602002000000020AC02002020000020B7
:100340002400002028000020E8010020704700BFA2
:10035000FEE700BFFEE700BFFEE700BFFEE7704715
:100360007047704770470246C2EBC200524B03EB26
:10037000400030F91100704710B5202003F09CF9BF
:1003800028B1202003F0A9F9202003F091F94020A2
:1003900003F092F928B1402003F09FF9402003F0C8
:1003A00087F9802003F088F928B1802003F095F9BF
:1003B000802003F07DF941480068C0F342104049B5
:1003C0000870404801783E480078FFF7CCFF3E496E
:1003D0000968081A3C4908603948007839490870AA
:1003E00010BD10B54FF4806003F066F938B14FF4DA
:1003F000806003F072F94FF4806003F059F94FF414
:10040000006003F059F938B14FF4006003F065F96A
:100410004FF4006003F04CF94FF4805003F04CF9B6
:1004200038B14FF4805003F058F94FF4805003F086
:100430003FF926488068C0F3822025490870254886
:10044000017823480078FFF78EFF23490968081ACE
:10045000214908601E4800781E49087010BD10B57B
:1004600001211E4804F03BF8012823D101211B483B
:1004700004F046F81A480088401C194908800846CC
:1004800000883C2816DB00200880134800681549C6
:1004900008600D4800681449086000200E49086093
:1004A000094908600F480068104948600E48006814
:1004B0000F49486010BD0000DA4F0008080C0140E9
:1004C00030000020310000203400002000100140E6
:1004D00032000020330000203800002000040040DB
:1004E000540000204400002048000020F0020020BA
:1004F000100300200CB50020019000906C480068AB
:1005000040F480306A49086000BF6948006800F420
:10051000003000900198401C0190009818B9019893
:10052000B0F5A06FF1D16248006800F4003010B15E
:100530000120009001E0002000900098012843D1A4
:100540005C48006840F010005A490860084600689E
:1005500020F0030008600846006840F002000860D0
:100560005348406852494860084640684860084619
:10057000406840F4806048600846406820F47C1081
:1005800048600846406840F4E81048600846006843
:1005900040F08070086000BF4548006800F00070BF
:1005A0000028F9D04248406820F0030040494860E4
:1005B0000846406840F00200486000BF3C48406880
:1005C00000F00C000828F9D10CBD10B5FFF792FF20
:1005D00010BD10B53648006840F00100344908608D
:1005E0000846406834490840314948600846006878
:1005F000324908402E4908600846006820F48020EF
:1006000008600846406820F4FE0048604FF41F0070
:100610008860FFF7DAFF4FF000602949086010BDDD
:1006200010B5002100200022214B5B6803F00C0173
:1006300021B1042906D0082928D107E0214B224CFA
:10064000236027E01F4B204C236023E0184B5B689E
:1006500003F47010164B5B6803F48032022303EB43
:10066000904022B9194B4343174C23600DE0104BC7
:100670005B6803F4003323B1144B4343124C2360F3
:1006800003E0104B4343104C236003E00D4B0E4C32
:10069000236000BF00BF064B5B68C3F303130C4C21
:1006A000E15C094B1B68CB40074C236010BD000088
:1006B00000100240002002400000FFF8FFFFF6FE9D
:1006C00008ED00E000127A005800002000093D000B
:1006D0005C00002008B501211D2002F015FF01215A
:1006E000FE4802F026FD4820ADF8000003208DF8FA
:1006F000020004208DF803006946F94802F048FC26
:100700000320ADF800008DF8020000208DF80300F2
:100710006946F34802F03CFC40F28470ADF80000FA
:1007200003208DF8020018208DF803006946EC487C
:1007300002F02EFC46F23000ADF8000003208DF8E8
:10074000020010208DF803006946E54802F020FC05
:100750004FF41840ADF8000002208DF80200282068
:100760008DF803006946DE4802F012FC4FF4805019
:10077000ADF8000002208DF8020048208DF803003B
:100780006946D74802F004FC4FF44670ADF800000B
:1007900002208DF8020028208DF803006946D14818
:1007A00002F0F6FB0420ADF8000003208DF80200F3
:1007B00010208DF803006946CA4802F0E9FB4FF4A7
:1007C000C750ADF8000003208DF8020004208DF81A
:1007D00003006946C34802F0DBFB4EF20340ADF86C
:1007E000000003208DF8020018208DF803006946F0
:1007F000BC4802F0CDFB4FF4E050ADF80000032000
:100800008DF8020004208DF803006946B64802F016
:10081000BFFB4FF40070ADF8000004208DF803001A
:100820006946B14802F0B4FB3F20ADF80000032058
:100830008DF8020000208DF803006946AA4802F0F6
:10084000A7FB4FF4E070ADF8000003208DF8020024
:1008500004208DF803006946A34802F099FB4FF489
:100860006040ADF8000002208DF8020028208DF8CD
:10087000030069469C4802F08BFB0320ADF80000A2
:1008800002208DF8020028208DF803006946974861
:1008900002F07EFB08BD10B50121480302F034FED2
:1008A000C4209349088042F62120091D0880812038
:1008B0008F490C31088046F668008D491831088050
:1008C00043F66800091D0880032089492831088003
:1008D0004815091D088049F22000854944310880E7
:1008E0000020834934310880091D0880091D0880D3
:1008F0004FF4FF70091D088041F6DD507C4920311E
:10090000088021207A49143108800120784930314B
:1009100008807748008840F001007549088010BDC4
:1009200010B50121C80202F0EFFDC4207149088012
:1009300042F62120091D088081206E490C31088073
:1009400046F668006B49183108806820091D088048
:1009500003206849283108804815091D08800020B7
:1009600064494031088049F22000091D08800020B8
:10097000604934310880091D0880091D088040F64F
:10098000DD505C492031088021205A49143108800B
:1009900001205849303108805648008840F0010055
:1009A0005449088010BD08B519208DF800000120B9
:1009B0008DF801008DF802008DF80300684601F003
:1009C00040FF08BD4C48806940F406404A498861B0
:1009D0000846C06840F4C060C8600846C06820F49B
:1009E000C060C8600846406820F44040486008463F
:1009F000406840F400404860002040490860881585
:100A00003F4908603F4908603F483E49343108602B
:100A10003E483B493431086048F201003849091D1D
:100A200008603849091D086009203449091D08601B
:100A300000BF3248001D006800F008000028F8D10F
:100A40002E48001D006840F004002C49091D086074
:100A500000BF2A48001D006800F004000028F8D1FB
:100A60002748001D006840F008002549091D08605E
:100A700000BF2348001D006800F008000028F8D1DE
:100A80001F48001D006840F004001D49091D086052
:100A900000BF1B48001D006800F004000028F8D1CA
:100AA0001848001D006840F008001649091D08603C
:100AB00000BF1448001D006800F008000028F8D1AD
:100AC0001048001D006840F004000E49091D086030
:100AD00000BF0C48001D00681AE000000002300052
:100AE00000080140000C01400010014000140140CA
:100AF00000340140002C0140001002400424014059
:100B000004280140043C01400D283600EEAD3000C1
:100B100000F004000028DCD1704710B502F086FB1D
:100B2000012002F008FC00BF212002F0C2FB0028D7
:100B3000FAD0102001F002FF022001F0EBFE0020AD
:100B400002F019FC002002F028FC4FF4806002F053
:100B50001BFC4FF46011002002F0F0FB012002F0BA
:100B6000F9FB00BF392002F0A4FB0028FAD00220D4
:100B700002F0F3FB00BF02F0F9FB0828FBD110BD27
:100B800010B586B004460121042002F0BDFC01210D
:100B9000480402F0C6FC26208DF8100000208DF8D5
:100BA00011008DF8120001208DF8130004A801F047
:100BB00048FE0420ADF8140003208DF8160018201C
:100BC0008DF8170005A9674802F0E2F90820ADF892
:100BD000140004208DF8170005A9624802F0D8F926
:100BE00000940020ADF80400ADF80600ADF8080050
:100BF000ADF80C000C20ADF80A0069465A4803F025
:100C0000C6FC012240F22551574803F058FD01214E
:100C1000554803F048FD06B010BD10B520215248DC
:100C200003F01CFE012825D14F4803F0ADFDC4B2EE
:100C30004E48006810B1012812D10BE0FB2C08D1FE
:100C40004B48007810B900204A4908600120474904
:100C5000086009E04848047000204449086003E047
:100C600000204249086000BF00BF40F225513E48C5
:100C700003F034FE10BD1CB50A21022002F09EFADA
:100C80000B21022002F09AFA0C21022002F096FABF
:100C900000208DF8040010208DF8050001208DF84B
:100CA000060080020090684602F0A0FC4FF400604D
:100CB0000090684602F09AFC4FF48050009068461D
:100CC00002F094FC0521012002F078FA06210120AF
:100CD00002F074FA0721012002F070FA202000903F
:100CE000684602F083FC40200090684602F07EFCDB
:100CF00080200090684602F079FC1CBD0EB50121F1
:100D0000022002F00EFC0020ADF80600ADF8020053
:100D100041F28730ADF804002320ADF80000012037
:100D20008DF808006946154802F0B4FD012113480A
:100D300003F00CF901221146104803F022F90EBD10
:100D400010B5FFF7EAFEFFF7C5FCFFF7E9FDFFF777
:100D500039FEFFF728FE4FF4E130FFF711FF01F0F5
:100D6000D7FC10BD00080140004400408000002076
:100D7000B7000020FC000020AC020020000400406E
:100D800070B504460D4600BF8021204603F066FD85
:100D90000028F9D02946204603F0F2FC70BD70B55A
:100DA00006460C46154604E014F8011B3046FFF7D2
:100DB000E7FF2800A5F101018DB2F5D170BD70B536
:100DC00000240125FA20EF49087000BF05E0EE4835
:100DD000005DEC4948556D1C641C022CF7DBAAB27F
:100DE000E849EA48FFF7DBFF70BDE848001D0088CE
:100DF000E749088008460088A0B9E6480088401CFA
:100E0000E44908800846008864283ADB64200880AA
:100E10000020E14908700120E04908700020E04905
:100E200008602EE00020DB490880DC490870D848C3
:100E30000088B0F5807F13D1DA484079582803D173
:100E40000020D749086007E0D6484079062803DC2F
:100E5000D4484079D24908600020D349087010E096
:100E6000CB480078CF49D04A12788854CE480078D1
:100E7000401CCD49087008460078062801DB062092
:100E800008707047C949098801F0200171B3C7494A
:100E9000091D0888C6490978491CC54A117000F423
:100EA0008071B9B111460978062910D1C149497933
:100EB000062903DCBF494979B94A1160BE4909686E
:100EC000012904D1BD4A11700021BD4A11700021D1
:100ED000B74A1170B6490978052903DCB54AB44B05
:100EE0001B78D0540021B74A116016E0B549096853
:100EF000B1F5EC6F0CDB0021B34A11700121B34A4C
:100F00001170B3490988C1F30E01B14A118004E0A0
:100F1000AC490968491CAB4A11607047AD4880680C
:100F2000C0F34020AC490860AC480068401CAB49A5
:100F3000086008460068B0F5FA7F06DB002008600C
:100F4000A7480068401CA6490860A5480068042816
:100F500002DB0420A24908609F480068012807D1ED
:100F6000A048006820B900209C4908609C4908609E
:100F7000994800689B4908609B480068401C9A4952
:100F8000086008460068642804DB642008600120CB
:100F90008E4908709548007840B98C48007828B987
:100FA0009348007810B99348007830B1924800888F
:100FB000C0F30E009049088018E09048006848B9D6
:100FC0008D480088C0F30E008B49088000208C49B2
:100FD00008700BE08A48007840B98748008840F4E0
:100FE0000040854908800120854908707047854880
:100FF00000888549098888427AD18448008840F26F
:101000004651884203DD8248008888424EDC814890
:10101000008881490988884226D17E4800887E4917
:10102000098888421AD17948008840F2465188429E
:1010300003DA01207949087002E00020774908703E
:101040007348008840F24651884203DA012074490F
:10105000087030E00020724908702CE000206F49D1
:1010600008706F49087026E0684801886848008861
:101070005830814206DD0120684908700020684927
:10108000087018E062480188604800885830814242
:1010900006DD0020614908700120614908700AE0FE
:1010A00000205E4908705E49087004E000205B493A
:1010B00008705B4908705B48007808B300205A4903
:1010C00008705A48007830B1012059490870002052
:1010D0005849087038E00020554908705648008883
:1010E00040F26261884204DB0120524908702BE023
:1010F00047E05048007880F001004E49087023E036
:1011000000204C4908704D48007830B10120484912
:10111000087000204449087016E000204449087017
:101120004748007868B14648007830B13E480078BA
:1011300080F001003C49087006E001203A4908703F
:1011400002E0012038490870374800783D490870AE
:10115000384800783C49087000203C4908703C49F8
:1011600008703C48007818B101203849087008E040
:101170002348007810B93848007810B1012034496C
:1011800008707047C4020020B602002000440040EE
:10119000E8000020BA00002089000020B6000020EE
:1011A00020000020AE000020AC00002000480040DD
:1011B00095000020A0000020E4000020B9000020DD
:1011C000B8000020BC0000208A000020B7000020EA
:1011D0004434014000100140EC000020F4000020E5
:1011E000F8000020F0000020FC0000201201002088
:1011F000E501002002000020442C014028000020CE
:1012000045020020760000207A0000208E01002098
:101210002C0100202E010020900100208B000020D6
:101220008C0000200F0200209300002046020020C6
:101230008F000020940000200C0200200B020020F0
:10124000050200208E0000208D000020920000206A
:1012500091000020470200204402002070B5FD4CA0
:10126000248840F6FC25AC4204DAFA4C2488641C3D
:10127000F84D2C80F74C248840F6FC25AC420ADB64
:1012800044F2E814F44D2C800024F44D2C70F44DFD
:101290002C70F44D2C70F04C248840F2F535AC42A3
:1012A00006DCEC4C248804EB8404B4F57D7F03DD7C
:1012B000ED4C2488ED4D2C80E74C248840F24655B7
:1012C000AC420EDCE34C248804EB44046400AC42E2
:1012D00007DCE74C2478062C09DB0024E54D2C8044
:1012E00005E00124E34D2C800024E14D2C70E24CFC
:1012F0002488002C63D0E14C2488062C32D1DB4CAE
:1013000024884FF6FF75AC422CD0DD4C2478ACB16C
:10131000D64C2488DB4D2D88641BDB4D2D88AC42D8
:1013200004DCD24C2488D84D2C80A2E0D64C2488F2
:10133000D44D2D882C44D44D2C809AE0D14C248857
:101340004FF6FF752C1BD04D2D88AC4202DA0124DC
:10135000CB4D2C70CC4C2488CA4D2D882C44CA4DC2
:101360002C8086E0C94C24789CB1C64C24884FF66A
:10137000FF752C1BC44D2D88AC4202DA0024C34DEE
:101380002C70C14C2488BF4D2D882C44BE4D2C8020
:101390006FE0B64C2488BB4D2D88641BBA4D2D8858
:1013A000AC4204DCB14C2488B74D2C8061E0B64CD3
:1013B0002488B44D2D882C44B34D2C8059E0AF4C7B
:1013C0002488012C2CD1A94C24884CB3AC4C247813
:1013D000ACB1A64C2488AB4D2D882C44AA4D2D8849
:1013E000AC4204DBA14C2488A74D2C8041E0A64CE4
:1013F0002488A44D2D88641BA34D2C8039E0A24C79
:101400002488A04D2D88AC4202DA01249C4D2C701A
:101410009D4C24889B4D2D88641B9B4D2C8028E07F
:101420009A4C247884B1984C2488964D2D88AC42EF
:1014300002DA0024954D2C70934C2488914D2D8810
:10144000641B914D2C8014E0884C24888D4D2D8890
:101450002C448D4D2D88AC4204DB844C24888A4D6D
:101460002C8006E0884C2488864D2D88641B864D90
:101470002C80874C2468C4F34214864D2C70864C13
:10148000A468C4F382243CB12C462478072C03D0F2
:101490000024824D2C700CE0804C24781E2C08DA3D
:1014A0007E4C2478641C7D4D2C707D4C2478794DC5
:1014B0002C70784C24787A4D2D78AC427AD0002468
:1014C000724D2C700124654D2C70764C714D2D7829
:1014D000645D6A4D2D78641B60B2012809D0441DFB
:1014E0003CB1441C0CB1052806D10024624D2C806F
:1014F00002E00124604D2C806B4C24785E4D2D88D9
:10150000AC420AD044F2E814534D2C800024534DD1
:101510002C70534D2C70534D2C70574C2478624DC9
:101520002C70534C2478062C04DA514C2478641C1B
:101530004F4D2C70474C24885C4D4A4E367825F828
:1015400016400024434D2C80454C24786CB1002378
:10155000002205E0554C34F812402344541CE2B2FA
:10156000062AF7DB3C4D2B801CE03C4C24785CB118
:101570004E4C3C4D2D7834F8154004EB4404640483
:10158000240C354D2C8006E044F2E814324D2C80BA
:101590000124384D2C80334C2478052C02D10124B1
:1015A0002F4D2C702F4C2478052C04DB00242D4D5E
:1015B0002C7005E0BCE22B4C2478641C294D2C7067
:1015C000254C24882E2C02DA2E24234D2C80354CD9
:1015D000304D2D78645D294D2C802E4C2478304D73
:1015E0002C70264C24884CB90124314D2C70314C80
:1015F0002488C4F30E042F4D2C8052E21E4C248804
:10160000002C7CD01D4C2488072C22D2DFE804F06B
:10161000DC045E7891AAC30041F25554264D2C801B
:101620000024264D2C804EF61644254D2C8041F288
:10163000E934244D2C8042F6AA240B4D2C8043F62D
:101640009364214D2C800E4C247814B901240F4D45
:101650002C70BAE01A0100202C0100201701002094
:1016600018010020280100203C0100203201002048
:10167000290100202A0100202E0100201C01002049
:1016800026010020200100201E010020270100204B
:10169000080C014014010020001001401601002038
:1016A00015010020EA01002013010020E2020020C1
:1016B00012010020442C01403401002030010020A0
:1016C00038010020360100203A01002043F6FF7463
:1016D000FA4D2C8042F6AA24F94D2C8041F2C164C7
:1016E000F84D2C8043F69364F74D2C8045F2555409
:1016F000F64D2C8046F63E14F54D2C8065E06EE0EC
:1017000046F6AA24ED4D2C8045F25554EC4D2C8024
:1017100044F26C14EB4D2C8046F63E14EA4D2C80BE
:101720004FF40044E94D2C8049F2E934E84D2C8017
:101730004BE049F25554E14D2C804FF40044E04D0C
:101740002C8046F61744DF4D2C8049F2E934DE4DFB
:101750002C804AF6AA24DD4D2C804BF69364DC4D98
:101760002C8032E04BF6FF74D44D2C804AF6AA242C
:10177000D34D2C8049F2C164D24D2C804BF693643A
:10178000D14D2C804DF25554D04D2C804EF63E1448
:10179000CF4D2C8019E04EF6AA24C84D2C804DF276
:1017A0005554C74D2C804CF26C14C64D2C804EF60F
:1017B0003E14C54D2C804FF6FF74C44D2C8041F271
:1017C000E934C34D2C8000E000BF00BFBC4C24882E
:1017D000C04D2D88641B24B2BF4D2C80ADE0BF4CA2
:1017E0002488072C1BD2DFE804F09E041B344D66CE
:1017F0007F0041F25554B14D2C806400B04D2C80D7
:1018000041F2C164AF4D2C8043F69364AE4D2C8001
:101810000024AE4D2C804EF61644AD4D2C8083E056
:1018200043F6FF74A54D2C8045F25554A44D2C80F1
:1018300044F26C14A34D2C8046F63E14A24D2C802D
:1018400042F6AA24A14D2C8041F2C164A04D2C8007
:101850006AE046F6AA24994D2C804FF40044984D36
:101860002C8046F61744974D2C8049F2E934964D6A
:101870002C8045F25554954D2C8044F26C14944DB7
:101880002C8051E049F255548C4D2C804AF6AA2404
:101890008B4D2C8049F2C1648A4D2C804BF69364A9
:1018A000894D2C804FF40044884D2C8046F6174417
:1018B000874D2C8038E04BF6FF74804D2C804DF224
:1018C00055547F4D2C804CF26C147E4D2C804EF67E
:1018D0003E147D4D2C804AF6AA247C4D2C8049F282
:1018E000C1647B4D2C801FE04EF6AA24734D2C80E2
:1018F0004FF6FF74724D2C804EF61644714D2C80BD
:1019000041F2E934704D2C804DF255546F4D2C80CE
:101910004CF26C146E4D2C80714C247814B9012457
:10192000704D2C7000E000BF00BF6A4C2488644DED
:101930002D88641B24B2684D2C806B4C248840F2A7
:10194000F535AC4202DC694C24786CB95C4C2488D7
:10195000604D2C805D4C2488654D2C8000245E4DAC
:101960002C80604D2C709CE0594C2488604D2C805C
:10197000604C2488F4B3594C2488012C22D1584C53
:1019800024787CB1534C24884F4D2D88AC4208DD1F
:101990004B4C24884F4D2C8000244F4D2C80514DB2
:1019A0002C707EE04B4C2488464D2D88AC4278DA72
:1019B000434C2488474D2C800024474D2C80494DB2
:1019C0002C706EE0454C2488062C09D1464C2488A6
:1019D00040F2F535AC4203DD4FF6FF74444D2C80E8
:1019E0003C4C2488384D2D88AC4207DC394C248887
:1019F000344D00E00CE02D88AC4252DA304C2488A3
:101A0000344D2C800024344D2C80364D2C7048E011
:101A1000324C2488062C22D1314C24787CB12D4CB8
:101A20002488284D2D88AC423BDA254C2488294D4A
:101A30002C800024284D2C802A4D2C7031E0254C20
:101A40002488214D2D88AC422BDD1D4C2488214D4E
:101A50002C800024204D2C80224D2C7021E01F4C26
:101A60002488012C08D1204C248840F2F535AC4262
:101A700002DD00241E4D2C80164C2488124D2D882A
:101A8000AC4205DC134C24880E4D2D88AC4208DA9C
:101A90000B4C24880F4D2C8000240F4D2C80114DB1
:101AA0002C70114C248840F2F535AC4226DC0E4CEB
:101AB0002488114D2D88641B21B220E034010020C0
:101AC0003001002038010020360100203C010020B8
:101AD0003A0100201E010020220100201C010020EC
:101AE00026010020270100202C01002018010020E1
:101AF000320100202E010020240100200021E44CAE
:101B000024880C44E34DB5F900504FF6FF76354478
:101B100005EB6404DE4D2D880D44B4FBF5F4DE4D79
:101B20002C800024DD4D2C70D94C2488DC4D2C8079
:101B3000DC4C24881CB1DC4C2488DC4D2C80DB4C34
:101B40002488DB4D2C80D74C24883CB12C4624883B
:101B500041F27C252C44D64D2C8010E0D54C2488B5
:101B60003CB1D34C248841F2C1652C44D04D2C802B
:101B700005E0CF4C248804F63864CD4D2C8070BD30
:101B80000020CD490880CD490880CD494880704764
:101B900030B5CA4C2488644222B2002A01DD0120FB
:101BA00005E0002A02DA4FF0FF3000E00020C24CCE
:101BB0002488044424B2C04D2C802C46B4F9004043
:101BC00004EBA2010BB211F5804F04DABD4B4FF4C8
:101BD00040442C8008E00CB2B4F5804F04DD4FF493
:101BE00080431C46B44D2C809C1124B2B44D6C80B3
:101BF00030BDB5480088B5490880B348B0F9000049
:101C0000B149B1F90210022202FB010044F6E611CB
:101C10004843C01300B2AD4948807047AB49B1F9A1
:101C20000010AB4AB2F900205143A84AB2F9022091
:101C3000A74BB3F9023002FB0311C8139F49B1F956
:101C4000001044F65D72514343F2A30202FB0011FF
:101C5000C91309B2994A1180704710B59448008899
:101C600000F03CF99A4948809148008800F049F911
:101C7000974908809248B0F90200B1F90010484332
:101C80008F49B1F90010924AB2F9022001FB12000B
:101C9000C01300B28F4948808948B0F900008C49D0
:101CA000B1F9001048438649B1F90210884AB2F9E7
:101CB000022001FB0200C01300B28649088010BD5B
:101CC0002DE9F043DFF80CC2BCF80080BCF902C07B
:101CD00040F6DB590CFB09FC08EBEC2CCCF1000CBA
:101CE0000FFA8CF70025DFF8ECC1BCF900C0BCF19D
:101CF000000F00DD0125DFF8DCC1BCF80080BCF975
:101D000002C040F6DB590CFB09FCC8EBEC2C0FFAC7
:101D10008CFCBCF1000F03DD05F1020C1FFA8CF501
:101D2000002F03DD05F1040C1FFA8CF5DFF8A4C1C8
:101D3000BCF80080BCF902C040F6DB590CFB09FC82
:101D4000C8EBEC2C0FFA8CF6DFF888C1BCF900C0A8
:101D5000CCEB0C2C4FEAAC20C7F1000C4FEA6C0C1A
:101D6000CCEB0C2C4FEAAC21C6F1000C4FEA6C0C0A
:101D7000CCEB0C2C4FEAAC22072D72D26FD2DFE8ED
:101D800005F00408192A3A4A5B00FF26FF23FF24C6
:101D900066E0C2F1FF0C8C440FFA8CF602F1FF0CE6
:101DA0008C440FFA8CF3C2F1FF0CACEB010C0FFA70
:101DB0008CF455E0C0F1FF0C8C440FFA8CF6C1F1A5
:101DC000FF0C84440FFA8CF3C1F1FF0CACEB000C58
:101DD0000FFA8CF444E0C2F1FF0C84440FFA8CF645
:101DE00002F1FF0C84440FFA8CF3C0F1FF0C944411
:101DF0000FFA8CF434E0C2F1FF0C84440FFA8CF635
:101E000002F1FF0C84440FFA8CF3C0F1FF0C9444F0
:101E10000FFA8CF424E0C0F1FF0C8C440FFA8CF61E
:101E2000C1F1FF0C84440FFA8CF3C1F1FF0CACEB51
:101E3000000C0FFA8CF413E0C2F1FF0C8C440FFA83
:101E40008CF602F1FF0C8C440FFA8CF3C2F1FF0CFC
:101E5000ACEB010C0FFA8CF402E002E0FFE700BFEC
:101E600000BF002E00DA0026002B00DA0023002C31
:101E700000DA0024DFF86080A8F8006008F10408A8
:101E8000A8F8003008F10408A8F80040BDE8F08385
:101E90002C0100202201002020010020260100202A
:101EA000240100202A010020340100201E0100200E
:101EB0003E0100202E0100204601002044010020A8
:101EC0004001002000C0FFFF480100204C0100201D
:101ED0005401002050010020342C01400146B1F58E
:101EE000004F08DBA1F5004040110A4A32F810000B
:101EF000404200B270474811064A32F8100000B262
:101F0000F8E700B5034603F5804188B2FFF7E6FF26
:101F100000BD00003C500008F0B54FF6FF77DFF839
:101F200020C4ACF80070DFF81CC4ACF800700027C7
:101F3000DFF814C48CF80070DFF810C48CF800705F
:101F4000DFF80CC48CF80070DFF808C48CF800705F
:101F5000DFF804C48CF80070DFF800C48CF800705F
:101F6000DFF8FCC38CF80070DFF8F8C38CF8007061
:101F700000260AE000BFFC4F3F78002FFBD000276F
:101F8000DFF8E4C38CF80070761C322EF2DB0021FF
:101F90000AE000BFF44F3F78002FFBD00027DFF8A6
:101FA000C8C38CF80070491CB1F5BE7FF1DB00227C
:101FB000002006E0ED4F37F810701744BAB2471C06
:101FC000F8B20428F6DBC2F38F07DFF8A4C3ACF83D
:101FD000007067463F8840F6BA0C674505DAE44F63
:101FE0003F8840F24E6C67450CDC0127DFF884C364
:101FF0008CF80070E04F3F88C7F30E07DFF878C316
:10200000ACF8007000230024002513E0DB4F3F886C
:102010001F44BBB2DA4F3F882744BCB200BFD24F47
:102020003F78002FFBD00027DFF83CC38CF800700E
:102030006F1CFDB2102DE9DB1F11DFF848C3ACF8AF
:1020400000702711DFF840C3ACF80070CD4FB7F92E
:10205000007040F6BA0C674514DCCA4FB7F900703F
:1020600040F24E6C67450DDBC74FB7F9007040F684
:10207000BA0C674506DCC44FB7F9007040F24E6CED
:1020800067450CDA0127DFF8ECC28CF80070BA4F14
:102090003F88C7F30E07DFF8E0C2ACF80070B64F18
:1020A0003F88C7F30E07DFF8D0C2ACF800700127F5
:1020B000DFF8D8C28CF800700027DFF8D4C28CF8A3
:1020C0000070F0BD70B5B3480088102806DB002012
:1020D000B04908800120A449087004E0AD48008898
:1020E000401CAC490880AC480088032806DB01206E
:1020F000AA4908700020A849088004E0A648008882
:10210000401CA5490880A148007808B1FFF7A6F84F
:10211000A3480068A349A04A128821F81200A248E7
:10212000006896490880A048001D0068944908800E
:102130009D480830006881B28C48974A128820F880
:102140001210904800888D490988401A00B29749BA
:1021500048808D4800888A490988401A4142894848
:102160000088864A1288801A081A00B28F490880AF
:102170008F48B0F90000002804DA8D48B0F900005B
:10218000444202E08A48B0F900408A48B0F90000B1
:10219000002804DA8748B0F90000454202E085488B
:1021A000B0F900508448046084480560AC4205DC06
:1021B0007F48B0F900007F4908803FE08048007800
:1021C00028BB7C48B0F900007949B1F90010884279
:1021D0001EDB7848B0F900007549B1F9001088425B
:1021E0002CDD7448B0F900107148B0F90000801C73
:1021F000814206DC6F480088401E00B26D490880AD
:102200001CE06C480088801E00B26A49088015E016
:102210006848B0F90000801C6549B1F90010884297
:1022200006DB64480088401C00B26249088005E073
:1022300060480088801C00B25E49088053480078DE
:10224000C8B16048008810B1FFF79AFC0FE04B4816
:10225000008840F60871884209DA494800888842B7
:1022600005DAFFF7C6FCFFF7D9FCFFF791FCFFF793
:10227000F4FCFFF725FD4048343800884FF6FE7126
:1022800008403D4934390880084600884FF6FE7101
:10229000084039493439088070BD10B5002200204B
:1022A00005E0324B33F810301A44431CD8B20428EE
:1022B000F7DB91082E4B1B88CB1A1BB2424C2380B4
:1022C0002B4B1B8803F2CD238B4208D33F4B1B883B
:1022D000B3F5816F03DD0023394C237014E0012333
:1022E000374C2370334BB3F90030002B06DB314BF6
:1022F0001B885B1E1BB22F4C238005E02D4B1B88D7
:102300005B1C1BB22B4C238010BD1348007848B1D6
:102310002F48007810B92F48007818B101202E49B5
:10232000087002E000202C4908702C4800882C49D5
:102330000988884258D100202A49087066E00000C8
:102340002C0100208E010020C0000020C1000020D0
:10235000B6000020B70000200F0200200E0200206F
:10236000A4010020B5000020AC010020C60100201F
:10237000E6010020E5010020442C0140C2010020BC
:10238000C4010020F4010020F6010020A801002073
:10239000F2010020A6010020AA010020D80100209F
:1023A000483C0140BA0100203C280140480100207F
:1023B000E801002040010020FC0100200002002074
:1023C000E40100202A010020E20100200C0200208C
:1023D000B900002068020020460200202E010020E3
:1023E000900100204802002009490988094A128802
:1023F000881800EBD071A822B2EB610F03DC00203B
:102400000549087002E00120034908707047000088
:102410008E0100202C010020480200200021002015
:1024200006E0974A32F810200A4491B2421CD0B21A
:102430000428F6DB8A10934B1A801A46128864230C
:102440005A4340F2F64392FBF3F2032392FBF3F27A
:1024500002EB42028C4B1A601A461268642A01DBB6
:1024600064221A60874A1288B2F5347F0ADC01229E
:10247000864B1A70864B1A60864A1288C2F30E0287
:10248000844B1A80704710B54FF48051824800F099
:1024900012FE80B1002081490870814800780A2826
:1024A00003DB00207F49087015E07D480078401C60
:1024B0007B4908700FE00020794908707748007860
:1024C0000A2803DB01207749087004E0734800788C
:1024D000401C7249087010BD70B57348C0887249BD
:1024E000898808447049498808446F490988084424
:1024F00084086E480088B0F57A7F04DA6B4800885B
:10250000401C6A4908806A480078002879D0B4F5F0
:102510009B6F32DC6748008806282ADD6348008804
:10252000B0F5487F18DB012063490880002609E0E8
:1025300000BF624800780028FBD000205F49087087
:10254000701C86B2C82EF3DB00205B490880202176
:10255000514800F0CCFD0CE05948007880F00100B3
:10256000574908700120574908704FF448704F4987
:10257000088000204F49088009E04E480088B0F5E7
:10258000FA7F04DA4B480088401C4A4908804E48CC
:102590000088012803D14D480078012803D000208D
:1025A0004B4908606AE04B480088E8B93748007832
:1025B000D0B949480078B8B948480078A0B9484827
:1025C000007888B94748008870B94748007858B9FA
:1025D0004648007840B94648007828B94548007810
:1025E00050BB4548007838BB3948006843498842A9
:1025F0001CD343480078A0B901202F49088000254A
:102600000AE01DE000BF2D4800780028FBD0002024
:102610002A490870681C85B2C82DF3DB00202649C2
:10262000088020211C4800F062FD27E0284800684F
:10263000401C2749086021E00020254908601DE072
:10264000B4F59B6F0FDD2F48008840F2DC518842C3
:1026500005DA2C480088401C2A4908800EE0012039
:10266000294908700AE0B4F59B6F07DC0020254972
:10267000088001200E4908702449087070BD0000D0
:10268000BA0100200C020020D80000200A0200201D
:1026900020020020442C0140000801401E020020BE
:1026A0001F0200200F020020CE0100201C0200208B
:1026B000100200201202002010010020AC010020B6
:1026C000F2010020F30100202A0100208C010020EB
:1026D0001802002070000020120100207401002068
:1026E00002000020DA010020E5010020B6000020F1
:1026F000B7000020450200204402002074D21A00D6
:10270000D601002014020020A40100200E020020A7
:1027100000203D49086048608860C8603B48006808
:1027200008613B48006848613A48006888610020B9
:10273000C8613949086048608860C86037480068E7
:1027400008613748006848613648006888610020A1
:10275000C86170472DE9F05F0446D4E90001401AD2
:1027600031490860A0680968081A30490860E068C3
:102770000968081A2E4908602B480068A0602B4899
:102780000068E0600846006802F068FA8146A169C6
:1027900002F0B0FA07462448006802F05FFA834668
:1027A000616902F0A7FA81462048006802F056FAF3
:1027B0008346216902F09EFA8246494602F002F9F8
:1027C0008046394602F0FEF806461A4902F068F9DA
:1027D0000546E16902F0F6F8E0614FF08941E069F1
:1027E00002F054FB03D84FF08940E06106E000217D
:1027F000E06902F04BFA01D80020E061E06902F0E4
:1028000011FABDE8F09F0000F002002074020020E1
:10281000780200207C0200201003002080020020AB
:1028200084020020880200208C02002090020020F8
:102830009402002000007A4431490143314A11607A
:10284000704770B5002100230F22C47804B32D4CCB
:10285000246804F4E064C4F5E064210AC1F10403CF
:10286000CA40447804FA03F18478144021430901F2
:10287000254C0678A155047804F01F050124AC40CE
:1028800005786D11AD0005F1E025C5F8004109E0BE
:10289000047804F01F050124AC401C4D0678761125
:1028A00045F8264070BD1A4A0A400243154B1B1FCB
:1028B0001A60704739B1134A121D12680243114B56
:1028C0001B1D1A6006E00F4A121D126882430D4B51
:1028D0001B1D1A607047042808D14FF0E0210969D8
:1028E00041F004014FF0E022116107E04FF0E021D8
:1028F000096921F004014FF0E022116170470000E6
:102900000000FA050CED00E000E400E080E100E0EA
:1029100080FFFF1F01460020FE4A106800F03800CB
:10292000084310607047FB49096821F00801F94A23
:10293000116011460968014311607047F549096843
:1029400021F01001F34A116011460968014311603A
:102950007047F148EF494860F04848607047EE48DA
:10296000EC494860ED4848607047EA48006940F02B
:102970008000E84908617047E648006940F080003F
:10298000E449086170470420E249C96801F0010187
:1029900009B101200EE0DF49C96801F0040109B165
:1029A000022007E0DB49C96801F0100109B10320EA
:1029B00000E00420704700B502460423FFF7E3FF60
:1029C000034603E0FFF7DFFF0346521E012B01D150
:1029D000002AF7D102B90523184600BD30B50446D8
:1029E00004254FF43020FFF7E6FF0546042D17D1EC
:1029F000C848006940F00200C649086108464461C1
:102A0000006940F0400008614FF43020FFF7D3FF29
:102A10000546C048006941F6FD710840BD4908619E
:102A2000284630BD10B504244FF43020FFF7C3FF13
:102A30000446042C16D1B748006940F00400B5499B
:102A400008610846006940F0400008614FF43020FA
:102A5000FFF7B1FF0446AF48006941F6FB7108403B
:102A6000AC490861204610BD00B502460423FFF7BB
:102A70008AFF034603E0FFF786FF0346521E012B41
:102A800001D1002AF7D102B90523184600BD10B5BF
:102A900004244FF43020FFF7E7FF0446042C16D13E
:102AA0009C48006940F004009A49086108460069A2
:102AB00040F0400008614FF43020FFF7D5FF044696
:102AC0009448006941F6FB7108409249086120462C
:102AD00010BD00208F49C96901F0020109B1012030
:102AE00000E00020704730B5A5250424FFF7F1FF72
:102AF00000B100254FF43020FFF75DFF0446042CA1
:102B00003AD18548834988608448886008460069CE
:102B100040F0200008610846006940F0400008616C
:102B20004FF43020FFF747FF0446042C1BD17948AF
:102B3000006941F6DF71084076490861084600697E
:102B400040F01000086176480580E002FFF733FF8F
:102B50000446052C10D06F48006941F6EF7108401B
:102B60006C49086108E0052C06D06A48006941F606
:102B7000EF71084067490861204630BD78B50646C8
:102B80000C46042500200090E802FFF714FF0546DC
:102B9000042D24D15F48006940F001005D490861BF
:102BA0003480E802FFF707FF0546042D10D1B01C62
:102BB0000090200C00990880E802FFF7FCFE054613
:102BC0005448006941F6FE7108405249086106E028
:102BD0005048006941F6FE7108404E490861284698
:102BE00078BD70B504460D460426F002FFF7E3FEFB
:102BF0000646042E11D14748006940F001004549BE
:102C000008612580F002FFF7D6FE064641480069BC
:102C100041F6FE7108403F490861304670BD70B50D
:102C200005460E460424E002FFF7C5FE0446042CC8
:102C300017D13948374988603848886008460069A4
:102C400040F0100008612E80E002FFF7B4FE044659
:102C5000052C06D02F48006941F6EF7108402D4938
:102C60000861204670BD2DE9F04304464FF6FF761B
:102C70003746B046B1460425E443E6B2C4F307271D
:102C8000C4F307484FEA1469E802FFF794FE0546CB
:102C9000042D49D120481F49886020488860084693
:102CA000006940F010000861FF2E06D01C48083073
:102CB0000680E802FFF77FFE0546042D08D1FF2FAE
:102CC00006D017480A300780E802FFF774FE054671
:102CD000042D0AD1B8F1FF0F07D011480C30A0F82D
:102CE0000080E802FFF767FE0546042D0AD1B9F11E
:102CF000FF0F07D00A480E30A0F80090E802FFF757
:102D00005AFE0546052D0FD00248006941F6EF71C5
:102D1000084007E00020024023016745AB89EFCD62
:102D200000F8FF1F664908612846BDE8F08330B50A
:102D3000054604244FF43020FFF73DFE0446042CE2
:102D400041D160485E4988605F48886008460069F4
:102D500040F0200008610846006940F0400008612A
:102D60004FF43020FFF727FE0446042C22D15448AC
:102D7000006941F6DF710840514908610846006961
:102D800040F0100008611DB100205049088002E0A9
:102D9000A5204E4908804FF43020FFF70CFE044672
:102DA000052C10D04648006941F6EF7108404449AF
:102DB000086108E0052C06D04148006941F6DF7142
:102DC00008403F490861204630BDF0B505460E4633
:102DD000174604243B483A4988603B488860E00233
:102DE000FFF7E9FD0446042C19D13548006940F08D
:102DF00010003349086147F0F80030432843334955
:102E0000891C0880E002FFF7D6FD0446052C06D099
:102E10002B48006941F6EF710840294908612046B6
:102E2000F0BD2748C069800870472548006A704790
:102E300000202349096801F0200109B1012000E0C8
:102E40000020704729B11E4A126902431C4B1A61C7
:102E500004E01B4A12698243194B1A61704701460C
:102E60000020012908D1164AD26902F001020AB1F4
:102E7000012008E0002006E0114AD2680A400AB1A9
:102E8000012000E0002070470D49C8607047042011
:102E90000B49C96801F0010109B101200EE00849A0
:102EA000C96801F0040109B1022007E00449C968BA
:102EB00001F0100109B1032000E004207047000078
:102EC0000020024023016745AB89EFCD00F8FF1FCA
:102ED00010B50446CC48844208D10121042000F0FA
:102EE0002DFB0021042000F029FB46E0C748844266
:102EF00008D10121082000F021FB0021082000F06A
:102F00001DFB3AE0C248844208D10121102000F0A4
:102F100015FB0021102000F011FB2EE0BD4884427B
:102F200008D10121202000F009FB0021202000F021
:102F300005FB22E0B848844208D10121402000F07E
:102F4000FDFA0021402000F0F9FA16E0B34884426F
:102F500008D10121802000F0F1FA0021802000F04A
:102F6000EDFA0AE0AE48844207D10121801500F055
:102F7000E5FA0021A01500F0E1FA10BD10B501211D
:102F8000084600F0DBFA0021012000F0D7FA10BD5E
:102F90002DE9F041024600250026002000230024F0
:102FA000002791F803C00CF00F0591F803C00CF056
:102FB000100CBCF1000F03D091F802C04CEA0505DB
:102FC00091F800C0BCF1000F31D0146800202BE054
:102FD0004FF0010C0CFA00F3B1F800C00CEA030644
:102FE0009E4220D183004FF00F0C0CFA03F7BC4334
:102FF00005FA03FC4CEA040491F803C0BCF1280F65
:1030000006D14FF0010C0CFA00FCC2F814C00AE023
:1030100091F803C0BCF1480F05D14FF0010C0CFA38
:1030200000FCC2F810C0401C0828D1D31460B1F8CD
:1030300000C0BCF1FF0F34DD546800202EE000F129
:10304000080C4FF0010808FA0CF3B1F800C00CEAC4
:1030500003069E4221D183004FF00F0C0CFA03F7B8
:10306000BC4305FA03FC4CEA040491F803C0BCF12C
:10307000280F05D100F1080C08FA0CF8C2F81480EA
:1030800091F803C0BCF1480F07D100F1080C4FF0D4
:10309000010808FA0CF8C2F81080401C0828CED3AA
:1030A0005460BDE8F0814FF6FF710180022181700C
:1030B0000421C17070470246002093680B400BB199
:1030C000012000E0002070470146886880B2704708
:1030D00002460020D3680B400BB1012000E0002025
:1030E00070470146C86880B270470161704741610E
:1030F00070470AB1016100E041617047C1607047EB
:103100004FF480320A4382618161826182698269FF
:10311000704702460020434B18684FF680731840F2
:1031200040EA021008433F4B186070473E49C861AF
:103130007047F0B50A46002300240021002500F066
:103140000046B6F1004F02D1364EF16901E0354E2E
:103150007168C0F3034583B200F44016B6F5401F12
:1031600008D121F070612F4E766826F070662D4FE1
:103170007E6012E000F48016B6F5801F06D10326AB
:1031800006FA05F4A14341F0706106E0460D3601F0
:1031900003FA06F6B14341F0706122B1460D3601E3
:1031A00003FA06F6314300F00046B6F1004F02D1B3
:1031B0001C4EF16101E01B4E7160F0BD30B5002284
:1031C0008B071C0F0F2303FA04F2164B08338C10E5
:1031D00053F824309343134C08348D1044F82530B1
:1031E00023468C1053F824308C07240F00FA04F483
:1031F00023430C4C08348D1044F8253030BD0A4967
:10320000DC3108607047000000080140000C0140FC
:10321000001001400014014000180140001C014052
:10322000002001400000014000002042DF4800680B
:1032300040F00100DD49086008464068DC4908406C
:10324000DA49486008460068DA490840D74908600A
:103250000846006820F4802008600846406820F492
:10326000FE0048604FF41F0088607047CF4909682E
:1032700021F48031CD4A11601146096821F4802182
:103280001160B0F5803F03D0B0F5802F0ED106E07D
:10329000C649096841F48031C44A116007E0C34956
:1032A000096841F4A021C14A116000E000BF00BFDD
:1032B000704710B501460022002300204A11012A60
:1032C00002D1BA4C236806E0022A02D1B74C236A25
:1032D00001E0B64C636A01F01F02012494401C40D7
:1032E0000CB1012000E0002010BD38B50020009096
:1032F0000024002500BF3120FFF7DBFF05460098C2
:10330000401C00900098B0F5A06F01D0002DF2D0C5
:103310003120FFF7CEFF08B1012400E00024204651
:1033200038BD01460020A14A106820F0F80040EAAC
:10333000C10010607047A049086070470246002035
:103340009A4B586820F47C1042EA01031843974BCB
:103350005860704798490866704701460020934AB4
:10336000506820F003000843506070478F48406861
:1033700000F00C007047014600208C4A506820F095
:10338000F00008435060704701460020874A5068AB
:1033900020F4E06008435060704701460020834AF3
:1033A000506820F4605040EAC1005060704729B175
:1033B0007E4A527A02437D4B5A7204E07B4A527A2B
:1033C00082437A4B5A7270477B49D8310860704704
:1033D00001460020754A506820F440400843506080
:1033E00070470021714A20321170704A82F8201013
:1033F000012802D004280AD104E001216B4A2032BE
:10340000117005E00521694A2032117000E000BF0B
:1034100000BF70476949086070476449096A014301
:10342000624A11627047654944390860704730B597
:1034300000210022002400235C4D6D6805F00C0182
:1034400021B1042905D0082923D105E05C4D056090
:1034500022E05B4D05601FE0544D6D6805F470126D
:10346000524D6D6805F48034022505EB92421CB97B
:10347000544D554305600BE04C4D6D6805F4003527
:103480001DB1504D5543056002E04D4D554305605B
:1034900002E04B4D056000BF00BF444D6D6805F074
:1034A000F0010909484D6B5C0568DD4045603F4D02
:1034B0006D6805F4E061090A434D6B5C4568DD40C9
:1034C00085603A4D6D6805F46051C90A3E4D6B5CEC
:1034D0004568DD40C560354D6D6805F44041890B98
:1034E0003A4D6B5CC568B5FBF3F5056130BD29B19C
:1034F0002E4A526902432D4B5A6104E02B4A52690D
:1035000082432A4B5A61704729B1284A9269024383
:10351000264B9A6104E0254A92698243234B9A61C3
:10352000704729B1214AD2690243204BDA6104E095
:103530001E4AD26982431D4BDA61704729B11B4A8A
:10354000D2680243194BDA6004E0184AD268824319
:10355000164BDA60704729B1144A12690243134BC3
:103560001A6104E0114A12698243104B1A617047D4
:1035700012494039086070470F49C86470470B49C9
:10358000C87170470948406A40F080700749486236
:10359000704701460020054A92680A400AB101209E
:1035A00000E0002070470149887270470010024017
:1035B0000000FFF8FFFFF6FE000042428004424296
:1035C00000127A0000093D0098020020A8020020A5
:1035D000002044490860091D0860091D0860091D94
:1035E000086041483F4914310860704700213D4957
:1035F0008279002A3AD00A46126803689A430B4639
:103600001A600A1D126803689A430B1D1A6002793A
:1036100011440A6803681A430A60324A0832126881
:1036200003689A432F4B08331A601A1D1268036807
:103630009A432C4B0C331A604279102A0ED11A1F70
:10364000126803681A43274B08331A601A1D126860
:1036500003681A43234B0C331A600DE02149427969
:1036600011440A6803681A430A6005E002791144AC
:103670000A6803689A430A6070470021016001717B
:103680000C21417100218171704716491031096880
:103690000143144A10321160704701460020114A5C
:1036A000143212680A400AB1012000E0002070477D
:1036B0000C49143108607047014600200022094B74
:1036C0001B6803EA0102074B14331B680B4013B15C
:1036D0000AB1012000E0002070470249143108605F
:1036E0007047000000040140FFFF0F0010B50446C2
:1036F000FE48844208D10121C014FFF71FFF0021BA
:10370000E014FFF71BFFC4E0B4F1804F08D10121A2
:103710000846FFF720FF00210120FFF71CFFB8E05B
:10372000F348844208D101210220FFF714FF002151
:103730000220FFF710FFACE0EE48844208D10121DF
:103740000420FFF708FF00210420FFF704FFA0E09A
:10375000E948844208D101210820FFF7FCFE00213E
:103760000820FFF7F8FE94E0E448844208D10121E4
:103770001020FFF7F0FE00211020FFF7ECFE88E09C
:10378000DF48844208D101212020FFF7E4FE002118
:103790002020FFF7E0FE7CE0DA48844208D10121D6
:1037A0004014FFF7CBFE00216014FFF7C7FE70E066
:1037B000D548844209D10121C804FFF7BFFE00218A
:1037C0004FF40020FFF7BAFE63E0D048844209D1ED
:1037D00001210805FFF7B2FE00214FF48010FFF72A
:1037E000ADFE56E0CA48844209D101214805FFF7E1
:1037F000A5FE00214FF40010FFF7A0FE49E0C548E8
:10380000844208D101214020FFF7A5FE002140207D
:10381000FFF7A1FE3DE0C048844208D1012180208D
:10382000FFF799FE00218020FFF795FE31E0BB48AD
:10383000844208D101218015FFF78DFE0021A015DB
:10384000FFF789FE25E0B648844209D1012108042A
:10385000FFF774FE00214FF48030FFF76FFE18E091
:10386000B048844209D101214804FFF767FE0021D6
:103870004FF40030FFF762FE0BE0AB48844208D102
:1038800001218804FFF75AFE00214FF48020FFF742
:1038900055FE10BD00220288944B98420ED0994BE1
:1038A00098420BD0B0F1804F08D0914B984205D090
:1038B000904B984202D0904B984204D14FF68F73B0
:1038C0001A404B881A438D4B984207D08C4B984234
:1038D00004D04FF6FF431A40CB881A4302808B88EE
:1038E00083850B880385814B98420BD0854B98428A
:1038F00008D08B4B984205D08A4B984202D08A4B15
:10390000984201D10B7A038601238382704770B5F8
:10391000002400220023058C4FF6FE7635400584F6
:10392000028C8388048B4FF68F752C40B51E2C407B
:103930000D882C43751E2A400D892A434D882A4341
:103940006A4DA8420BD06F4DA84208D0744DA842D2
:1039500005D0744DA84202D0734DA84213D14FF642
:10396000F7752A404D892A434FF6FB752A408D880A
:103970002A434FF6FF652B404FF6FF552B408D89AC
:103980002B43CD892B4383800483CD888586028495
:1039900070BD70B5002400220023058C4FF6EF7631
:1039A00035400584028C8388048B48F6FF752C40D3
:1039B0004FF6FF452C400D884FF6FF7606EA0525A9
:1039C0002C434FF6DF752A400D8906EA05152A4378
:1039D0004D8806EA05152A43444DA84202D0494DB8
:1039E000A8421DD14FF67F752A404D894FF6FF76CC
:1039F00006EA05152A434FF6BF752A408D8806EA68
:103A000005152A434FF6FF352B404FF2FF752B402B
:103A10008D8906EA85052B43CD8906EA85052B436A
:103A200083800483CD880587028470BD70B500242F
:103A300000220023058C4FF6FF6635400584028C7A
:103A40008388848B4FF68F752C404FF6FC752C4085
:103A50000D882C434FF6FF552A400D894FF6FF760F
:103A600006EA05252A434D8806EA05252A431F4D07
:103A7000A84202D0234DA8421DD14FF2FF752A4023
:103A80004D894FF6FF7606EA05252A434FF6FF35A6
:103A90002A408D8806EA05252A434EF6FF752B40FD
:103AA0004DF6FF752B408D8906EA05152B43CD8910
:103AB00006EA05152B4383808483CD88858702849D
:103AC00070BD70B5002200230024058C4EF6FF76F1
:103AD00035400584038C8488828B48F6FF752A4024
:103AE0004FF6FF452A400D8820E00000002C0140E1
:103AF0000004004000080040000C0040001000409E
:103B00000014004000340140004C014000500140CE
:103B10000054014000180040001C004000200040FC
:103B20000040014000440140004801404FF6FF764C
:103B300006EA05252A434DF6FF752B400D8906EA56
:103B400005352B434D8806EA05352B43FA4DA8422F
:103B500002D0FA4DA84208D14BF6FF752C408D8952
:103B60004FF6FF7606EA85152C4384808283CD8844
:103B7000A0F84050038470BD828B4FF2FF331A408F
:103B80008283828B4FF6FF7303EA01231A438283F9
:103B90007047F0B50C461546002200210026078C20
:103BA0004EF6FF7C07EA0C070784828B018C4FF6E8
:103BB000FF7707EA043640F6FF473A404FF6FF77B3
:103BC00007EA05273A434FF6FF7707EA03373A43F8
:103BD000D94FB8420ED0D94FB8420BD0B0F1804F78
:103BE00008D0D74FB84205D0D64FB84202D0D64FF2
:103BF000B84206D14DF6FF77394046F48057394335
:103C000005E047F6FF57394044F480573943828333
:103C10000184F0BD828B4FF6F3731A408283828B4E
:103C20000A4382837047F0B50C46154600220021F6
:103C30000026078C4FF6FF6C07EA0C070784828B7F
:103C4000018C4FF6FF7707EA04264FF60C773A40CF
:103C50004FF6FF7707EA03172F433A43B64FB842B0
:103C60000ED0B64FB8420BD0B0F1804F08D0B44F51
:103C7000B84205D0B34FB84202D0B34FB84206D1D4
:103C80004FF6FF57394046F48077394305E04FF24D
:103C9000FF57394044F48077394382830184F0BD73
:103CA000028B4FF2FF331A400283028B4FF6FF73F1
:103CB00003EA01231A4302837047F0B50C46154608
:103CC000002200210026078C4FF6EF7C07EA0C0744
:103CD0000784028B018C4FF6FF7707EA041640F643
:103CE000FF473A404FF6FF7707EA03373A434FF66C
:103CF000FF7707EA05273A438F4FB8420ED08F4F20
:103D0000B8420BD0B0F1804F08D08D4FB84205D0EB
:103D10008C4FB84202D08C4FB84206D14FF6DF77B5
:103D2000394046F01007394305E04FF65F773940D8
:103D300044F01007394302830184F0BD028B4FF633
:103D4000F3731A400283028B0A4302837047F0B573
:103D50000C46154600220021068C4FF6FE773E40A9
:103D60000684028B018C4FF60C7632407E1C06EAEC
:103D700003162E433243704EB0420ED06F4EB04207
:103D80000BD0B0F1804F08D06D4EB04205D06D4ED3
:103D9000B04202D06C4EB04206D14FF6FD763140B3
:103DA00044F00106314305E04FF6F576314044F02A
:103DB0000106314302830184F0BD70B505460C460F
:103DC0005D4885420ED05D4885420BD0B5F1804FED
:103DD00008D05B48854205D05A48854202D05A48EF
:103DE000854200D100E000BF208850B92389A28815
:103DF00061882846FFF7ABFFE1882846FFF79EFF62
:103E000025E0208804280AD12389A28861882846D1
:103E1000FFF753FFE1882846FFF742FF17E02088AD
:103E200008280AD12389A28861882846FFF7FBFE6B
:103E3000E1882846FFF7EEFE09E02389A288618821
:103E40002846FFF7A6FEE1882846FFF795FE70BDDD
:103E50002DE9F04105460C4600260127608808B987
:103E6000022600E00026A088012801D1022700E0F8
:103E700001272088A0B92389A28861882846FFF7F6
:103E800066FFE1882846FFF759FF23893A46314605
:103E90002846FFF712FFE1882846FFF701FF13E0ED
:103EA0002389A28861882846FFF707FFE188284612
:103EB000FFF7F6FE23893A4631462846FFF747FFCB
:103EC000E1882846FFF73AFFBDE8F0810A884B8871
:103ED0001A438B881A43CB881A430B891A434B89A0
:103EE0001A438B891A43A0F8442070474FF6FF719C
:103EF000818000210180C1804180017270470021D2
:103F0000018041808180C180018141818181C181A5
:103F10007047002101804180012181800021C18002
:103F2000018170470021018041808180C180018131
:103F30004181818170470000002C01400034014024
:103F40000004004000080040000C004021B102883D
:103F500042F00102028004E002884FF6FE731A402C
:103F60000280704731B1B0F8442042F40042A0F81A
:103F7000442005E0B0F84420C2F30E02A0F844202B
:103F800070471AB183890B43838102E083898B4395
:103F9000838170478182704741EA0203A0F848306C
:103FA00070471AB183890B43838102E083898B4375
:103FB0008381704701894FF6F87211400181704783
:103FC0000A46002101894FF68F7319401143018180
:103FD000704730B504460D4629462046FFF7F0FFEE
:103FE000208940F00700208130BD2DE9F0410446D2
:103FF0000D4616461F46602D06D13B46012231462E
:104000002046FFF75AFE05E03B4601223146204696
:10401000FFF79DFE29462046FFF7D2FF208940F09A
:1040200007002081BDE8F08130B50C4600210189F0
:10403000C9B24FF6FF7505EA032515432543294309
:10404000018130BD2DE9F04105460E4617469846E0
:10405000002443463A4631462846FFF7E5FF2C89BF
:104060004FF6F870044044F007044FF68F70044098
:1040700044F070042C81BDE8F081F0B504460D4693
:1040800016461F463B46324629462046FFF7CCFFE0
:10409000208940F480402081F0BD018582827047F4
:1040A0000A46002101884FF68F73194011430180A1
:1040B0007047F0B50C4615461E460021002200232D
:1040C0000189028B038C4FF6F877394021434FF674
:1040D000FC473A4040F201173A434FF6DD773B4048
:1040E0004FF6FF7707EA06172F433B430181028310
:1040F0000384F0BD0A460021018B4FF68F731940EF
:104100001143018370470A460021018B48F6FF7373
:1041100019404FF6FF7303EA0223194301837047E6
:104120000A460021818B4FF68F731940114381831A
:1041300070470A460021818B48F6FF7319404FF6FD
:10414000FF7303EA022319438183704721B1028878
:1041500042F08002028004E002884FF67F731A402A
:104160000280704721B1828842F00402828004E01C
:1041700082884FF6FB731A408280704721B1828893
:1041800042F00802828004E082884FF6F7731A40FA
:104190008280704721B1828842F00102828004E06F
:1041A00082884FF6FE731A40828070470A460021CB
:1041B000018B4FF6F77319401143018370470A468C
:1041C0000021018B4FF2FF7319404FF6FF7303EA92
:1041D00002231943018370470A460021818B4FF661
:1041E000F77319401143818370470A460021818B80
:1041F0004FF2FF7319404FF6FF7303EA022319438E
:10420000818370470A460021018B4FF6FB731940EA
:104210001143018370470A460021018B4FF6FF339B
:1042200019404FF6FF7303EA0223194301837047D5
:104230000A460021818B4FF6FB731940114381839D
:1042400070470A460021818B4FF6FF3319404FF625
:10425000FF7303EA02231943818370470A46002152
:10426000018B4FF67F7319401143018370470A4653
:104270000021018BC1F30E014FF6FF7303EA022305
:104280001943018370470A460021818B4FF67F73E3
:1042900019401143818370470A460021818BC1F385
:1042A0000E014FF6FF7303EA02231943818370471F
:1042B0000A460021018C4FF6FD7319401143018419
:1042C00070470A460021018C4FF6F77319401143DD
:1042D000018470470A460021018C4FF6DF731940B4
:1042E0004FF6FF7303EA02131943018470470A462D
:1042F0000021018C4FF67F7319404FF6FF7303EADC
:1043000002131943018470470A460021018C4FF6BD
:10431000FF5319404FF6FF7303EA02231943018448
:1043200070470A460021018C4FF2FF7319404FF687
:10433000FF7303EA02231943018470470A460021F0
:10434000018C4DF6FF7319404FF6FF7303EA0233F9
:1043500019430184704730B5002301248C40A3B277
:10436000048C9C430484048C02FA01F5ADB22C4306
:10437000048430BD30B5002304248C40A3B2048CE7
:104380009C430484048C02FA01F5ADB22C430484EE
:1043900030BD70B5034600200024184618300125B2
:1043A0008D40ACB21D8CA5431D8409B1082909D1EB
:1043B00000EB6100056825F0700505600568154390
:1043C00005600EE00D1FC5F34E052844056825F471
:1043D000E045056005684FF6FF7606EA022635439C
:1043E000056070BD21B1028842F00202028004E043
:1043F00002884FF6FD731A400280704721B102888F
:1044000042F00402028004E002884FF6FB731A4077
:104410000280704721B1828842F08002828004E0ED
:1044200082884FF67F731A408280704702884FF669
:10443000F7731A40028002880A430280704782881C
:104440004FF68F731A40828082880A4382807047B9
:1044500002894FF6F8731A40028102890A430281E9
:10446000704702894FF67F731A40028102890A431E
:1044700002817047818470478185704781867047CB
:104480000187704781877047A0F840107047028805
:104490004FF6FF431A40028002880A4302807047A9
:1044A0000146888E70470146088F70470146888F05
:1044B00070470146B1F8400070470146888C70474C
:1044C0000146088D704702460020138A0B400BB14D
:1044D000012000E000207047CA430282704730B5D7
:1044E0000246002000230024158A05EA010395896D
:1044F00005EA010413B10CB1012000E0002030BD39
:10450000CA4302827047000010B50446FB4884424B
:1045100009D101218803FFF711F800214FF48040F1
:10452000FFF70CF832E0F648844209D10121480433
:10453000FFF711F800214FF40030FFF70CF825E0E9
:10454000F048844209D101218804FFF704F80021D2
:104550004FF48020FEF7FFFF18E0EB48844209D1BA
:104560000121C804FEF7F7FF00214FF40020FEF7F9
:10457000F2FF0BE0E548844208D101210805FEF76F
:10458000EAFF00214FF48010FEF7E5FF10BD2DE992
:10459000F04786B005460E460024A24600BFA1465D
:1045A0000027B08900B100BF2F462C8A4CF6FF705F
:1045B0000440F08804432C82AC894EF6F31004408A
:1045C000B08831890843718908430443AC81AC8ABF
:1045D0004FF6FF400440B0890443AC8201A8FEF7C7
:1045E00026FFC648874202D1DDF810A001E0DDF8C1
:1045F0000CA0A88900F4004040B10AEBCA0000EB0F
:104600000A1031684900B0FBF1F807E00AEBCA0074
:1046100000EB0A1031688900B0FBF1F86420B8FBA8
:10462000F0F004012009642101FB1089A88900F43D
:10463000004040B1322000EBC900B0FBF1F000F0C7
:104640000700044308E0322000EB09106421B0FBAE
:10465000F1F000F00F0004432C8106B0BDE8F087B4
:104660004FF41651016000218180C18001810C212D
:10467000418100218181704710B502460020108AD7
:104680004FF2FF0318400B884C8823438C88234348
:10469000CC8823431843108210BD00210180418043
:1046A0008180C180704721B1828942F400528281A9
:1046B00004E082894DF6FF731A4082817047F0B59D
:1046C0000346002400260025002040F66A17B94260
:1046D00000D100BF1846C1F3421401F01F060127A4
:1046E00007FA06F5012C01D10C3004E0022C01D1AF
:1046F000103000E014301AB107682F43076002E061
:104700000768AF430760F0BD1AB1838A0B43838209
:1047100002E0838A8B4383827047028A4FF6F073EC
:104720001A400282028A0A430282704782894FF24B
:10473000FF731A40828182890A438281704721B1C6
:10474000828942F00202828104E082894FF6FD7381
:104750001A4082817047028A4FF6DF731A40028244
:10476000028A0A430282704721B1028A42F48042DF
:10477000028204E0028A4BF6FF731A4002827047FD
:10478000C1F308028280704701468888C0F30800A0
:104790007047818941F0010181817047028BD2B25B
:1047A0000283028B42EA012202837047028B02F4E9
:1047B0007F420283028B0A430283704721B1828ABF
:1047C00042F02002828204E0828A4FF6DF731A40B0
:1047D0008282704721B1828A42F01002828204E014
:1047E000828A4FF6EF731A408282704721B1828A23
:1047F00042F00802828204E0828A4FF6F7731A4080
:104800008282704721B1828942F40042828103E0B2
:104810008289C2F30E028281704721B1828A42F4FA
:104820000062828204E0828A4FF2FF731A40828221
:104830007047828A4FF6FB731A408282828A0A434B
:104840008282704721B1828A42F00202828204E0B1
:10485000828A4FF6FD731A4082827047024600201A
:10486000B1F5007F00D100BF13880B400BB10120D0
:1048700000E00020704701F40072B2F5007F00D123
:1048800000BFCA430280704770B50246002400236F
:104890000025002040F66A16B14200D100BFC1F3E6
:1048A000421501F01F03012606FA03F3012D02D180
:1048B0009689334006E0022D02D1168A334001E08A
:1048C000968A33400C12012606FA04F41688344006
:1048D00013B10CB1012000E0002070BD10B5002222
:1048E000002340F66A14A14200D100BF0A1201243D
:1048F0009440A3B2DC43048010BD000000380140A6
:104900000044004000480040004C0040005000407F
:104910000948804709480047FEE7FEE7FEE7FEE753
:10492000FEE7FEE7FEE7FEE7FEE7FEE7044805498F
:10493000054A064B70470000D30500083101000806
:104940009003002090090020900500209005002091
:10495000704770477047754600F028F8AE4605006E
:104960006946534620F00700854618B020B5FFF78A
:10497000DDFFBDE820404FF000064FF000074FF08C
:1049800000084FF0000B21F00701AC46ACE8C0096D
:10499000ACE8C009ACE8C009ACE8C0098D46704776
:1049A0000446AFF300802046FBF719FC004870472F
:1049B0003003002001491820ABBEFEE726000200AC
:1049C0007047000090EA010F48BF81F0004100F1FC
:1049D0009682421A3CBF801A89184FEAD0524FF093
:1049E0007F4C1CEA410FA2EBD15318BF9CEA026F27
:1049F00000F03B804FF0004C4CEA00204CEA0121D3
:104A000021FA03FC10EB0C0C1ED202F1FF325FEA1C
:104A10001C2040EBC25038BF70471CF07F0F4FEA9C
:104A2000400C18BFBCF17F4F38BF7047C3F1200363
:104A3000994008BF20F00100BCF17F4F38BF70479C
:104A4000A0F1C04000F01DBA4FEA3C00000A40EB64
:104A5000C25028BF1CF0FF0F4FEA400CE6D018BF31
:104A6000BCF17F4F38BF7047EAE79CEA026F05D080
:104A700010EA5C0F08BF00F00040704710B500F06E
:104A8000BAF900BF64FBBE3E401058BFC0F14040C1
:104A9000491058BFC1F140418142EFF30080704797
:104AA0004FF47F0C1CEAD0121EBF1CEAD11392EA0D
:104AB0000C0F93EA0C0F00F0858090EA010F48BFBD
:104AC00042F4807240F4000C41F400002CF07F416D
:104AD00020F07F4000B58142A2EB03020FF2081CD8
:104AE000ACEB504EC0F100009EF800E04FEA4E0ED5
:104AF00000FB0EFC38BF49004FEA2C1C02F5FA02FD
:104B00000CFB0EF34FEACE1E4FEA112C4FEAC121E7
:104B10000EEB635E42EB22420EFB0CFC4FEA1C5391
:104B200000FB03114FEA112C4FEA01310EFB0CFC84
:104B30004FEADC4C00FB0C11C14228BF09184CEBBA
:104B400003335DF804EB10EB410143EBC250B2F5C7
:104B50007C0F38BF704729D512F0F00F1CBF00F151
:104B6000C04000F0004070470081828384858687C2
:104B700088898B8C8D8E8F919293959697999A9C1C
:104B80009D9FA0A2A3A5A7A8AAACAEB0B2B3B5B78B
:104B9000B9BCBEC0C2C5C7C9CCCED1D4D7D9DCDF61
:104BA000E2E6E9ECF0F3F7FAFE0000004FEA400C11
:104BB0000CF1807CBCF17E4F28BF7047B0F1C04043
:104BC00000F05FB990EA010F0CEAD11348BF42F43C
:104BD0008072624538BF634507D213F47F0F16D049
:104BE00080EA010000F00040704710B500F003F9C2
:104BF000097EFC3E00F005B880EA010000F00040AC
:104C0000704780EA010000F0004000F03AB912F469
:104C10007F0F04BF0248704780EA010000F031B9FD
:104C20000000C07F41000B0ED3F19E0208D950F462
:104C300000034FEA032323FA02F048BF40427047C3
:104C400010B500F0D8F800BF4992248000207047CA
:104C50006FF0004282EA20007047000010F000412F
:104C600048BF4042B0FA80F310FA03F2C3F19D034B
:104C70000BD051EAC35101EB1220530638BF7047E5
:104C800000F1010008BF20F00100704750EA010C5C
:104C900000F113801CF5000F58BFBCF5000F01D4C4
:104CA0008842704707D710F5000F58BF11F5000F65
:104CB00015D488427047894270471CF5000F04D50F
:104CC000BCF5000FF7D5814270474FF0807C1CEB9C
:104CD000400F38BF1CEB410F01D28142704710B525
:104CE00000F089F8922449004FF000504FF08051B5
:104CF000FFF7CABE4FF47F0C1CEAD0121EBF1CEA9D
:104D0000D11392EA0C0F93EA0C0F00F0478090EA5F
:104D1000010F48BF42F480724FF0004C4CEA002073
:104D20004CEA012102EB0302A0FB0113A2F50002F1
:104D3000002918BF43F001035B0028BF4FEA33038B
:104D400042EB22425FEA132C4CEBC2502EBFBCEB6D
:104D5000436FB2F57C0F70474FEA036CBCF1004F14
:104D600008BF20F00100B2F57C0F38BF70470BD5AB
:104D700082F0FF0212F5803FC8BF704700F1C040CB
:104D8000D8BF00F00040704700F5000C5FEA4C0C03
:104D900048BF7047B0F1C04000F073B890EA010F0F
:104DA0000CEAD11348BF42F48072624538BF6345B4
:104DB00004D280EA010000F00040704710B500F016
:104DC0001AF800BF8900013E00F007B800F009B8EA
:104DD0005FEA410C5FEA1C6C08D080EA010000F039
:104DE00050B85FEA400C5FEA1C6CF6D14FF000400F
:104DF000A0F5800070470EF1020E2EF0030E5EF853
:104E0000044B244204D44FEA4102B2F17F4F11D83F
:104E10004FEA4003B3F17F4F0CD80ED14FEAD07C5C
:104E2000B2F17F4F0CEB4C0C0CF1020C08BF4CEBB9
:104E3000D17C04E04FF0080C01E04FEAD17C0CEB90
:104E40004C0324FA03F404F00704B4F1040C06D272
:104E50000EEB840CBDE810404CF0010C6047DFE81D
:104E60000CF0070802024FF00040A0F5800010BDD2
:104E70000846420018BFD2F1807288BF00F000409F
:104E800010BDFF2141EAD050C005704751EA000C27
:104E900000F113801CF5000F58BFBCF5000F01D4C2
:104EA0008142704707D711F5000F58BF10F5000F6A
:104EB00015D481427047894270471CF5000F04D514
:104EC000BCF5000FF7D5884270474FF0807C1CEB93
:104ED000410F38BF1CEB400F01D28842704780EA77
:104EE000010081EA000180EA0100FFF7F8BE00003E
:104EF00090EA010F48BF81F000413FF56AAD421AC8
:104F000004D882F00042A0EB020011444FEAD052D4
:104F10004FF07F4C1CEA410FA2EBD15318BF9CEA23
:104F2000026F4AD04FF0004C4CEA00204CEA0121BD
:104F300021FA03FCB0EB0C0C0FD412F0FE0F36D0AC
:104F40005FEA4C001DD5001240EBC25038BF7047DD
:104F50001CF03F0F18BF70470BE0A2F101025FEA9F
:104F60001C2040EBC25038BF70471CF07F0F18BFA9
:104F70007047C3F12003994014BF401E20F0010088
:104F8000704780084FEA122308BF7047B0FA80FCD0
:104F9000A2EB0C02CCF1280C60FA0CF093EA122F71
:104FA00004BF00EBC25070474FEAC3707047130A4A
:104FB0005FEADC1008BF7047F6E79CEA026F04D096
:104FC00010EA5C0F08BF0020704710B5FFF713FF11
:104FD00040DFF63E81F00040704700000000000016
:104FE0000000000000000000000000000000FFFFC3
:104FF00000000100000000000000000001000000AF
:105000000000FFFF00000100FFFF000000000000A3
:10501000000000000000000000000000FFFF010091
:105020000000FFFF00000000010000000000000081
:10503000000001000000FFFF00000000000064000D
:10504000C9002D019201F7015B02C002240389030C
:10505000EE035204B7041B058005E4054906AD06BE
:1050600012077607DB073F08A40808096C09D10975
:10507000350A990AFE0A620BC60B2A0C8E0CF20C3A
:10508000570DBB0D1F0E830EE70E4B0FAE0F121008
:105090007610DA103E11A11105126912CC123013EC
:1050A0009313F6135A14BD1420158415E7154A16E8
:1050B000AD1610177317D61739189B18FE186119FB
:1050C000C319261A881AEB1A4D1BAF1B121C741C2D
:1050D000D61C381D9A1DFC1D5D1EBF1E211F821F80
:1050E000E41F4520A72008216921CA212B228C22F8
:1050F000ED224E23AE230F247024D0243025912599
:10510000F1255126B12611277027D02730288F2866
:10511000EE284E29AD290C2A6B2ACA2A292B872B67
:10512000E62B442CA32C012D5F2DBD2D1B2E792E9B
:10513000D72E342F922FEF2F4C30A9300731633107
:10514000C0311D327932D63232338E33EA334634AF
:10515000A234FE345935B53510366B36C636213794
:105160007C37D63731388B38E5383F399939F339C0
:105170004D3AA63A003B593BB23B0B3C643CBC3C2D
:10518000153D6D3DC53D1D3E753ECD3E253F7C3FE9
:10519000D33F2B408240D8402F418641DC413242F0
:1051A0008842DE4234438943DF4334448944DE4449
:1051B00033458745DC4530468446D8462C477F47F3
:1051C000D24726487948CC481E497149C349154AF7
:1051D000674AB94A0B4B5C4BAD4BFE4B4F4CA04C56
:1051E000F04C414D914DE14D314E804ED04E1F4F10
:1051F0006E4FBD4F0B505A50A850F650445191512C
:10520000DF512C527952C65213535F53AB53F753AD
:1052100043548F54DA5425557155BB550656505694
:105220009B56E5562E577857C1570A5853589C58E5
:10523000E5582D597559BD59045A4C5A935ADA5AA2
:10524000215B675BAE5BF45B3A5C7F5CC55C0A5DCF
:105250004F5D945DD85D1D5E615EA55EE85E2C5F6E
:105260006F5FB25FF45F37607960BB60FD603E6185
:105270008061C161026242628362C362036342630E
:105280008263C16300643F647D64BB64F964376515
:105290007465B265EF652B666866A466E0661C6798
:1052A00057679267CD67086843687D68B768F1689B
:1052B0002A6963699C69D5690E6A466A7E6AB56A1D
:1052C000ED6A246B5B6B926BC86BFE6B346C6A6C23
:1052D0009F6CD46C096D3E6D726DA66DDA6D0D6EAE
:1052E000406E736EA66ED96E0B6F3D6F6E6FA06FC2
:1052F000D16F0270327062709270C270F270217160
:1053000050717E71AD71DB71097236726472917287
:10531000BD72EA72167342736E739973C473EF733E
:10532000197443746D749774C074EA7412753B7584
:1053300063758B75B375DA75017628764F76757659
:105340009B76C176E6760B773077547779779D77C1
:10535000C077E47707782A784C786E789078B278BE
:10536000D378F47815793679567976799579B5794F
:10537000D479F279117A2F7A4D7A6A7A877AA47A77
:10538000C17ADD7AF97A157B317B4C7B677B817B37
:105390009B7BB57BCF7BE87B027C1A7C337C4B7C90
:1053A000637C7A7C927CA97CBF7CD67CEC7C027D81
:1053B000177D2C7D417D567D6A7D7E7D917DA57D0D
:1053C000B87DCB7DDD7DEF7D017E137E247E357E35
:1053D000457E567E667E757E857E947EA37EB17EFA
:1053E000BF7ECD7EDB7EE87EF57E017F0E7F1A7F5D
:1053F000257F317F3C7F477F517F5B7F657F6F7F5C
:10540000787F817F8A7F927F9A7FA27FA97FB07FFA
:10541000B77FBE7FC47FCA7FCF7FD47FD97FDE7F37
:10542000E27FE67FEA7FED7FF17FF37FF67FF87F13
:10543000FA7FFB7FFD7FFE7FFE7FFE7FFE7FFE7F8C
:10544000FE7FFD7FFB7FFA7FF87FF67FF37FF17FA2
:10545000ED7FEA7FE67FE27FDE7FD97FD47FCF7F5B
:10546000CA7FC47FBE7FB77FB07FA97FA27F9A7FAC
:10547000927F8A7F817F787F6F7F657F5B7F517F9F
:10548000477F3C7F317F257F1A7F0E7F017FF57E2E
:10549000E87EDB7ECD7EBF7EB17EA37E947E857E60
:1054A000757E667E567E457E357E247E137E017E29
:1054B000EF7DDD7DCB7DB87DA57D917D7E7D6A7D97
:1054C000567D417D2C7D177D027DEC7CD67CBF7C9A
:1054D000A97C927C7A7C637C4B7C337C1A7C027C3A
:1054E000E87BCF7BB57B9B7B817B677B4C7B317B78
:1054F000157BF97ADD7AC17AA47A877A6A7A4D7A4D
:105500002F7A117AF279D479B579957976795679B5
:1055100036791579F478D378B27890786E784C78BB
:105520002A780778E477C0779D7779775477307752
:105530000B77E676C1769B7675764F762876017680
:10554000DA75B3758B7563753B751275EA74C07443
:1055500097746D7443741974EF73C47399736E7395
:1055600042731673EA72BD72917264723672097276
:10557000DB71AD717E7150712171F270C2709270E9
:10558000627032700270D16FA06F6E6F3D6F0B6FE3
:10559000D96EA66E736E406E0D6EDA6DA66D726D6D
:1055A0003E6D096DD46C9F6C6A6C346CFE6BC86B7D
:1055B000926B5B6B246BED6AB56A7E6A466A0E6A13
:1055C000D5699C6963692A69F168B7687D68436831
:1055D0000868CD67926757671C67E066A4666866CF
:1055E0002B66EF65B26574653765F964BB647D64ED
:1055F0003F640064C163826342630363C362836286
:1056000042620262C16180613E61FD60BB6079609F
:105610003760F45FB25F6F5F2C5FE85EA55E615E2E
:105620001D5ED85D945D4F5D0A5DC55C7F5C3A5C34
:10563000F45BAE5B675B215BDA5A935A4C5A045AAF
:10564000BD5975592D59E5589C5853580A58C1579A
:1056500078572E57E5569B5650560656BB557155F2
:105660002555DA548F544354F753AB535F531353B8
:10567000C65279522C52DF5191514451F650A850E4
:105680005A500B50BD4F6E4F1F4FD04E804E314E73
:10569000E14D914D414DF04CA04C4F4CFE4BAD4B6C
:1056A0005C4B0B4BB94A674A154AC34971491E49BD
:1056B000CC4879482648D2477F472C47D84684466D
:1056C0003046DC4587453345DE4489443444DF4376
:1056D00089433443DE4288423242DC4186412F41D5
:1056E000D84082402B40D33F7C3F253FCD3E753E86
:1056F0001D3EC53D6D3D153DBC3C643C0B3CB23B85
:10570000593B003BA63A4D3AF33999393F39E538D0
:105710008B383138D6377C372137C6366B36103662
:10572000B5355935FE34A2344634EA338E3332333C
:10573000D63279321D32C03163310731A9304C3055
:10574000EF2F922F342FD72E792E1B2EBD2D5F2DAC
:10575000012DA32C442CE62B872B292BCA2A6B2A3C
:105760000C2AAD294E29EE288F283028D027702703
:105770001127B1265126F12591253025D0247024FA
:105780000F24AE234E23ED228C222B22CA21692125
:105790000821A7204520E41F821F211FBF1E5D1E78
:1057A000FC1D9A1D381DD61C741C121CAF1B4D1BF2
:1057B000EB1A881A261AC3196119FE189B18391892
:1057C000D61773171017AD164A16E715841520154E
:1057D000BD145A14F61393133013CC126912051228
:1057E000A1113E11DA1076101210AE0F4B0FE70E1A
:1057F000830E1F0EBB0D570DF20C8E0C2A0CC60B20
:10580000620BFE0A990A350AD1096C090809A40835
:105810003F08DB0776071207AD064906E405800559
:105820001B05B7045204EE0389032403C0025B0284
:10583000F70192012D01C900640000002040030817
:1058400000000020AC0200006C0100087840030852
:10585000AC020020E4060000A801000800000000DF
:105860000000000000000000000000000000000038
:105870000000000000000000000000000000000028
:105880000000000000000000000000000000000018
:105890000000000000000000000000000000000008
:1075D00035FFD90532583339318221570000000078
:1075E000000000000000000000000000000000009B
:1075F000000000000000000000000000000000008B
:10760000000000000000000000000000000000007A
:10761000000000000000000000000000000000006A
:020000040801F1
:10600000FFFFFFFFFFFF8413FEFF43E90000FFFFD8
:106010008413FEFF38F0FEFF38F0FEFF38F038F052
:106020000000000000000000000000000000000070
:106030000000000000000000000000000000000060
:106040000000000000000000000000000000000050
:106050000000000000000000000000000000000040
:10B00000FFFFFFFFFFFF8413FEFF6D260000FFFF21
:10B010008413FEFF38F0FEFF38F0FEFF38F0FFFF2C
:10B020000000000000000000000000000000000020
:10B030000000000000000000000000000000000010
:10B040000000000000000000000000000000000000
:10B0500000000000000000000000000000000000F0
:020000040802F0
:10F00000FFFFFFFFFFFF841334DA38F00000FFFF3B
:10F010008413FEFF38F0FEFF38F0FEFF38F038F0C2
:10F0200000000000000000000000000000000000E0
:10F0300000000000000000000000000000000000D0
:10F0400000000000000000000000000000000000C0
:10F0500000000000000000000000000000000000B0
:020000040803EF
:103C000001010000FFFF8413FEFF38F00000FFFFFA
:103C100056FEFEFF38F0FEFF38F0FEFF38F038F0B9
:103C20000000000000000000000000000000000094
:103C30000000000000000000000000000000000084
:103C40000000000000000000000000000000000074
:103C50000000000000000000000000000000000064
:1040000001013412FFFF8413FEFF38F0283800004E
:10401000FFFFFFFF000000006A47A354FFFFFFFF00
:1040200081324133F04235A042200305429CFFFF1C
:10403000FF94A24A04097501020304060708094215
:10404000010214010222040361FC0A036EFC0A0748
:10405000160204030601050370FFFF324133F042EC
