:020000040800F2
:10000000E03100200D020008150200081702000868
:10001000190200081B0200081D0200080000000071
:100020000000000000000000000000001F020008A7
:100030002102000800000000230200082502000839
:1000400027020008270200082702000827020008EC
:1000500027020008270200082702000827020008DC
:1000600027020008270200082702000827020008CC
:1000700027020008270200082702000827020008BC
:1000800027020008270200082702000827020008AC
:10009000270200082702000827020008270200089C
:1000A000270200082702000827020008270200088C
:1000B000270200085D09000827020008270200083F
:1000C000270200082702000827020008270200086C
:1000D00027020008A50B0008DD0B0008490C0008EA
:1000E000270200082702000827020008270200084C
:1000F000270200082702000827020008270200083C
:10010000270200082702000827020008270200082B
:10011000270200082702000827020008270200081B
:10012000270200082702000827020008270200080B
:1001300000F002F800F05AF80AA090E8000C82449F
:100140008344AAF10107DA4501D100F04FF8AFF27C
:10015000090EBAE80F0013F0010F18BFFB1A43F0A5
:1001600001031847E0180000001900000A444FF08E
:10017000000C10F8013B13F0070408BF10F8014B06
:100180001D1108BF10F8015B641E05D010F8016B4B
:10019000641E01F8016BF9D113F0080F1EBF10F8AF
:1001A000014BAD1C0C1B09D16D1E58BF01F801CBD2
:1001B000FAD505E014F8016B01F8016B6D1EF9D555
:1001C0009142D6D37047000000230024002500266A
:1001D000103A28BF78C1FBD8520728BF30C148BFAA
:1001E0000B6070471FB51FBD10B510BD00F031F892
:1001F0001146FFF7F7FF01F02DFA00F04FF803B4B6
:10020000FFF7F2FF03BC00F053F8000009488047F5
:1002100009480047FEE7FEE7FEE7FEE7FEE7FEE7E8
:10022000FEE7FEE7FEE7FEE704480549054A064B00
:1002300070470000FD08000831010008E02B002095
:10024000E0310020E02D0020E02D002070477047B5
:100250007047754600F028F8AE46050069465346DB
:1002600020F00700854618B020B5FFF7DDFFBDE898
:1002700020404FF000064FF000074FF000084FF00D
:10028000000B21F00701AC46ACE8C009ACE8C0099E
:10029000ACE8C009ACE8C0098D4670470446AFF32E
:1002A00000802046FFF7ABFF00487047802B0020FE
:1002B00001491820ABBEFEE726000200704700008F
:1002C00070B504460D461646304601F0A1FB1048B5
:1002D0000068401C0E490860082001F025FB611EE3
:1002E000802202EB0112691E501801F01DFB084824
:1002F00000884AF2A0010844C0F3072001F050FB37
:1003000003490978A031C8B201F04AFB70BD000072
:10031000242B00200549096821F01001034A1160CF
:100320001146096801431160704700000020024037
:1003300001460020034A106800F0380008431060AE
:10034000704700000020024010B501213D2000F060
:1003500043F910BD2DE9F04102460025002600209A
:1003600000230024002791F803C00CF00F0591F83A
:1003700003C00CF0100CBCF1000F03D091F802C0C8
:100380004CEA050591F800C0BCF1000F31D01468AB
:1003900000202BE04FF0010C0CFA00F3B1F800C084
:1003A0000CEA03069E4220D183004FF00F0C0CFA9A
:1003B00003F7BC4305FA03FC4CEA040491F803C0BC
:1003C000BCF1280F06D14FF0010C0CFA00FCC2F86A
:1003D00014C00AE091F803C0BCF1480F05D14FF0FA
:1003E000010C0CFA00FCC2F810C0401C0828D1D344
:1003F0001460B1F800C0BCF1FF0F34DD5468002078
:100400002EE000F1080C4FF0010808FA0CF3B1F8E7
:1004100000C00CEA03069E4221D183004FF00F0C6E
:100420000CFA03F7BC4305FA03FC4CEA040491F808
:1004300003C0BCF1280F05D100F1080C08FA0CF834
:10044000C2F8148091F803C0BCF1480F07D100F145
:10045000080C4FF0010808FA0CF8C2F81080401C94
:100460000828CED35460BDE8F08141617047016136
:100470007047000008B50120ADF8000004208DF899
:10048000030069460848FFF765FF2220ADF8000029
:1004900003208DF8020004208DF80300694603480C
:1004A000FFF758FF08BD000000080140000C0140A4
:1004B00008B54FF48070ADF8000003208DF80200FD
:1004C00010208DF8030069461D48FFF743FF4FF4E5
:1004D0000040ADF8000003208DF8020010208DF8D8
:1004E000030069461748FFF735FF4FF48040ADF829
:1004F000000003208DF8020010208DF803006946EB
:100500001048FFF727FF4FF40050ADF8000003201C
:100510008DF8020010208DF8030069460948FFF7A6
:1005200019FF4FF48050ADF8000003208DF8020051
:1005300010208DF8030069460248FFF70BFF08BD45
:1005400000080140000C014070B5002100230F227B
:10055000C47804B3154C246804F4E064C4F5E06482
:10056000210AC1F10403CA40447804FA03F18478F3
:100570001440214309010E4C0678A155047804F07B
:100580001F050124AC4005786D11AD0005F1E02593
:10059000C5F8004109E0047804F01F050124AC40CF
:1005A000044D0678761145F8264070BD0CED00E04C
:1005B00000E400E080E100E029B1064AD26902438C
:1005C000044BDA6104E0034AD2698243014BDA61E9
:1005D000704700000010024029B1064A92690243A8
:1005E000044B9A6104E0034A92698243014B9A6189
:1005F00070470000001002400F48006840F0010002
:100600000D490860084640680C4908400A4948609E
:10061000084600680A49084007490860084600681B
:1006200020F4802008600846406820F4FE004860FE
:100630004FF41F0088607047001002400000FFF870
:10064000FFFFF6FE30B500210022002400232D4DCF
:100650006D6805F00C0121B1042905D0082923D1CA
:1006600005E0294D056022E0274D05601FE0254D7E
:100670006D6805F47012234D6D6805F48034022511
:1006800005EB92421CB9214D554305600BE01D4D11
:100690006D6805F400351DB11C4D5543056002E041
:1006A000194D5543056002E0174D056000BF00BFBE
:1006B000144D6D6805F0F0010909154D6B5C056876
:1006C000DD4045600F4D6D6805F4E061090A104D8D
:1006D0006B5C4568DD4085600A4D6D6805F46051CE
:1006E000C90A0B4D6B5C4568DD40C560054D6D6802
:1006F00005F44041890B074D6B5CC568B5FBF3F50C
:10070000056130BD0010024000127A0000093D0072
:10071000000000201000002010B501460022002338
:1007200000204A11012A02D1094C236806E0022A5E
:1007300002D1074C236A01E0054C636A01F01F02F5
:10074000012494401C400CB1012000E0002010BDA9
:10075000001002400248406800F00C0070470000A2
:100760000010024001460020034A506820F0F000CB
:1007700008435060704700000010024001490860C3
:10078000704700000000424201460020034A5068C2
:1007900020F4E06008435060704700000010024001
:1007A00001460020034A506820F4605040EAC1002E
:1007B0005060704700100240014908667047000011
:1007C0000000424202460020044B586820F47C108E
:1007D00042EA01031843014B586070470010024081
:1007E00001460020034A506820F00300084350608F
:1007F000704700000010024010B500F001F810BD75
:100800000CB50020019000903348006840F480301F
:100810003149086000BF3048006800F400300090A3
:100820000198401C0190009818B90198B0F5A06F8C
:10083000F1D12948006800F4003010B10120009087
:1008400001E0002000900098012843D1234800686F
:1008500040F01000214908600846006820F00300BD
:1008600008600846006840F0020008601A484068C6
:10087000194948600846406848600846406840F4A6
:10088000806048600846406820F47C104860084654
:10089000406840F4E81048600846006840F0807006
:1008A000086000BF0C48006800F000700028F9D014
:1008B0000948406820F0030007494860084640683E
:1008C00040F00200486000BF0348406800F00C00A0
:1008D0000828F9D10CBD00000010024000200240A1
:1008E00008B53020ADF8000028208DF803006946D7
:1008F0000148FFF72FFD08BD0008014010B513485F
:10090000006840F00100114908600846406810493D
:1009100008400E494860084600680E4908400B49E7
:1009200008600846006820F4802008600846406897
:1009300020F4FE0048604FF41F008860FFF75CFF62
:100940004FF000600449086010BD00000010024034
:100950000000FFF8FFFFF6FE08ED00E010B50121F2
:100960000D4800F02EF8012814D101210A4800F0AA
:1009700019F80A480068401C0849086008460068E1
:1009800047F23051884202DB002004490860012010
:100990000349086010BD000000040040102B002037
:1009A00014000020CA430282704721B1028842F03D
:1009B0000102028004E002884FF6FE731A400280B2
:1009C000704730B50246002000230024158A05EA4E
:1009D0000103958905EA010413B10CB1012000E07F
:1009E000002030BD1AB183890B43838102E08389E3
:1009F0008B43838170470000002202881D4B984280
:100A00000ED01D4B98420BD0B0F1804F08D01B4B3D
:100A1000984205D01A4B984202D01A4B984204D102
:100A20004FF68F731A404B881A43174B984207D0E2
:100A3000164B984204D04FF6FF431A40CB881A4316
:100A400002808B8883850B8803850A4B98420BD0E4
:100A5000094B984208D00E4B984205D00D4B984256
:100A600002D00D4B984201D10B7A03860123838279
:100A700070470000002C0140003401400004004099
:100A800000080040000C004000100040001400402E
:100A90000040014000440140004801401FB51D20B6
:100AA0008DF8000001208DF8030000208DF8010072
:100AB0008DF802006846FFF747FD01210220FFF78D
:100AC0007BFD0020ADF80A00ADF8060042F20F7081
:100AD000ADF808004720ADF8040001208DF80C00A7
:100AE00001A90648FFF788FF01210448FFF75DFFD1
:100AF000012211460148FFF775FF1FBD00040040A9
:100B000010B586B0044601210420FFF765FD0121E0
:100B10004804FFF751FD26208DF8100002208DF8C3
:100B200011008DF8120001208DF8130004A8FFF7C2
:100B30000BFD0420ADF8140003208DF816001820DA
:100B40008DF8170005A91548FFF704FC0820ADF83B
:100B5000140004208DF8170005A91048FFF7FAFBD0
:100B600000940020ADF80400ADF80600ADF80800D0
:100B7000ADF80C000C20ADF80A006946084800F0FA
:100B8000B1F8012240F22551054800F086F8012114
:100B9000034800F069F806B010BD000000080140ED
:100BA0000044004010B520210A4800F069F80128EF
:100BB0000FD1084800F002F9C4B22146064800F0FF
:100BC00006F9044800F0FAF8C4B22146014800F0E2
:100BD000FEF810BD003801400044004010B520214F
:100BE000164800F04DF8012827D1144800F0E6F827
:100BF000C4B21348006820B1012808D0022812D1DD
:100C00000BE0FA2C02D101200D4908600FE00D48DD
:100C1000047002200A49086009E00A484470002074
:100C20000749086003E000200549086000BF00BFD5
:100C300040F22551014800F008F810BD0044004082
:100C4000202B0020762B0020704710B500220023B7
:100C500040F66A14A14200D100BF0A120124944058
:100C6000A3B2DC43048010BD21B1828942F400525A
:100C7000828104E082894DF6FF731A4082817047B9
:100C800002460020B1F5007F00D100BF13880B4061
:100C90000BB1012000E000207047F0B503460024AE
:100CA00000260025002040F66A17B94200D100BF97
:100CB0001846C1F3421401F01F06012707FA06F592
:100CC000012C01D10C3004E0022C01D1103000E0E5
:100CD00014301AB107682F43076002E00768AF437A
:100CE0000760F0BD2DE9F04786B005460E460024AA
:100CF000A24600BFA1460027B08900B100BF2F4621
:100D00002C8A4CF6FF700440F08804432C82AC8996
:100D10004EF6F3100440B0883189084371890843C6
:100D20000443AC81AC8A4FF6FF400440B0890443D1
:100D3000AC8201A8FFF786FC1F48874202D1DDF88C
:100D400010A001E0DDF80CA0A88900F4004040B13B
:100D50000AEBCA0000EB0A1031684900B0FBF1F859
:100D600007E00AEBCA0000EB0A1031688900B0FB0B
:100D7000F1F86420B8FBF0F004012009642101FBC4
:100D80001089A88900F4004040B1322000EBC9006E
:100D9000B0FBF1F000F00700044308E0322000EB64
:100DA00009106421B0FBF1F000F00F0004432C8126
:100DB00006B0BDE8F0870000003801400146888891
:100DC000C0F308007047C1F308028280704770B515
:100DD00004460D4600BF80212046FFF751FF002842
:100DE000F9D029462046FFF7EEFF70BD70B50646E4
:100DF0000C46154604E014F8011B3046FFF7E7FFE8
:100E00002800A5F101018DB2F5D170BD70B50024A7
:100E10000125FB200849087000BF05E00748005D78
:100E2000054948556D1C641C012CF7DBAAB2024928
:100E30000348FFF7DBFF70BD3A2B00202C2B00206E
:100E40000044004010B5012000F06EFD10BD0021EF
:100E500005E0002200E0521C6E2AFCDB491C8142A6
:100E6000F7DB7047002105E0002200E0521C052A54
:100E7000FCDB491C8142F7DB7047000010B50446DB
:100E8000012C04D0022C21D0032C5DD13DE03F4A3F
:100E900002210320FFF714FA3D4A03210846FFF719
:100EA0000FFA3C4A02210420FFF70AFA3A4A0321CA
:100EB0000420FFF705FA394A02210520FFF700FA5E
:100EC000374A03210520FFF7FBF95CE0354A022190
:100ED0000320FFF7F5F9344A03210846FFF7F0F93C
:100EE000324A02210420FFF7EBF9314A03210420A2
:100EF000FFF7E6F92F4A02210520FFF7E1F92E4A14
:100F000003210520FFF7DCF93DE02C4A02210320F4
:100F1000FFF7D6F92A4A03210846FFF7D1F9294AF3
:100F200002210420FFF7CCF9274A03210420FFF710
:100F3000C7F9264A02210520FFF7C2F9244A0321F6
:100F40000520FFF7BDF91EE0224A02210320FFF72A
:100F5000B7F9214A03210846FFF7B2F91F4A0221D7
:100F60000420FFF7ADF91E4A03210420FFF7A8F97A
:100F70001C4A02210520FFF7A3F91B4A0321052083
:100F8000FFF79EF900BF00BF10BD0000D004002095
:100F9000F00400201005002030050020500500203E
:100FA0007005002090050020B0050020D00500202D
:100FB000F00500201006002030060020500600201A
:100FC0007006002090060020B0060020D006002009
:100FD000F0060020100400203004002050040020FF
:100FE0007004002090040020B004002010B50446D6
:100FF0000B2C1BD2DFE804F0D8C3AE99846F5A459E
:10100000301B0600744A09210120FFF759F9734A81
:101010000A210120FFF754F9714A0B210120FFF743
:101020004FF9704A0C210120FFF74AF9D1E06E4ACE
:1010300009210120FFF744F9684A0A210120FFF73E
:101040003FF96A4A0B210120FFF73AF9654A0C2162
:101050000120FFF735F9BCE0654A09210120FFF7BF
:101060002FF95E4A0A210120FFF72AF9614A0B2174
:101070000120FFF725F95B4A0C210120FFF720F939
:10108000A7E05D4A09210120FFF71AF9534A0A2116
:101090000120FFF715F9594A0B210120FFF710F93C
:1010A000504A0C210120FFF70BF992E0544A092124
:1010B0000120FFF705F9494A0A210120FFF700F94D
:1010C000504A0B210120FFF7FBF8464A0C21012072
:1010D000FFF7F6F87DE04C4A09210120FFF7F0F810
:1010E0004A4A0A210120FFF7EBF8494A0B21012067
:1010F000FFF7E6F83B4A0C210120FFF7E1F868E032
:10110000414A09210120FFF7DBF8424A0A21012068
:10111000FFF7D6F8404A0B210120FFF7D1F8314AFA
:101120000C210120FFF7CCF853E0374A09210120B8
:10113000FFF7C6F8394A0A210120FFF7C1F8384AFB
:101140000B210120FFF7BCF8264A0C210120FFF7F4
:10115000B7F83EE02C4A09210120FFF7B1F8314AE7
:101160000A210120FFF7ACF82F4A0B210120FFF7DD
:10117000A7F81C4A0C210120FFF7A2F829E0224A17
:1011800009210120FFF79CF8284A0A210120FFF7D6
:1011900097F8274A0B210120FFF792F8114A0C21FA
:1011A0000120FFF78DF814E0174A09210120FFF70D
:1011B00087F8204A0A210120FFF782F81E4A0B21F6
:1011C0000120FFF77DF8074A0C210120FFF778F88E
:1011D00000BF00BF10BD00007000002050000020C4
:1011E000F001002050030020900000201002002099
:1011F000B000002030020020D0000020500200206B
:10120000F0000020700200201001002030010020BA
:101210009002002050010020B00200207001002048
:10122000D002002090010020F0020020B001002038
:1012300010030020D00100203003002010B5044628
:10124000052C22D2DFE804F003090F151B0010A2C1
:101250000921042000F0D2F817E00FA20921042090
:1012600000F0CCF811E00EA20921042000F0C6F82D
:101270000BE00DA20921042000F0C0F805E00CA24B
:101280000921042000F0BAF800BF00BF10BD000023
:10129000354B6D2F4800000031304B6D2F4800005A
:1012A00032304B6D2F48000033304B6D2F4800001B
:1012B00034304B6D2F48000010B54B4A01210220FD
:1012C000FEF7FEFF484A01210220FEF7F9FF464AD9
:1012D00002210846FEF7F4FF434A03210220FEF7ED
:1012E000EFFF414A04210220FEF7EAFF3F4A0521B1
:1012F0000220FEF7E5FF3C4A06210220FEF7E0FF50
:10130000394A07210220FEF7DBFF374A0821022075
:10131000FEF7D6FF344A09210220FEF7D1FF324AF8
:101320000A210220FEF7CCFF2F4A0B210220FEF7F4
:10133000C7FF2D4A0C210220FEF7C2FF2C4A0521CF
:101340000320FEF7BDFF2A4A05210420FEF7B8FF5F
:10135000274A05210846FEF7B3FF254A0521062046
:10136000FEF7AEFF234A01210620FEF7A9FF214A1E
:1013700001210620FEF7A4FF1E4A02210620FEF7E7
:101380009FFF1C4A03210620FEF79AFF194A0421F9
:101390000620FEF795FF184A05210620FEF790FF6C
:1013A000144A06210846FEF78BFF124A0721062041
:1013B000FEF786FF0F4A08210620FEF781FF0D4A3F
:1013C00009210620FEF77CFF0A4A0A210620FEF7C3
:1013D00077FF084A0B210620FEF772FF054A0C2111
:1013E0000620FEF76DFF10BD700300209003002063
:1013F000D0030020F0030020B003002070B50546A4
:101400000E461446802000F08FFA102000F08CFA6F
:10141000691E802202EB0112711E501800F084FA3E
:1014200007E0207800F0BCFA641C207800F0B8FADD
:10143000641C20780128F4DC70BD10B5FFF7DCF8DF
:101440000120FFF79BF900BF2120FFF765F9002875
:10145000FAD01020FEF75EFF0220FEF769FF0020A1
:10146000FFF780F90020FFF79BF94FF48060FFF74A
:101470008BF94FF460110020FFF7A4F90120FFF76A
:101480009BF900BF3920FFF747F90028FAD0022066
:10149000FFF7A6F900BFFFF75DF90828FBD110BDE3
:1014A00010B51E20FFF7D3FC4FF400416848FEF74B
:1014B000DCFF1E20FFF7CBFC4FF400416448FEF731
:1014C000D6FF1E20FFF7C3FC1E20FFF7C0FC08203C
:1014D00000F02AFA0A20FFF7C5FC302000F024FAB9
:1014E0003220FFF7BFFC082000F01EFA0A20FFF7A9
:1014F000B9FC302000F018FA0A20FFF7B3FC0820EE
:1015000000F012FA0A20FFF7ADFC302000F00CFAD0
:101510000A20FFF7A7FC082000F006FA0A20FFF7D0
:10152000A1FC012000F000FA0A20FFF79BFC0A2032
:10153000FFF798FC0A20FFF795FC0A20FFF792FCC2
:101540000A20FFF78FFC082000F0EEF96420FFF777
:1015500089FC062000F0E8F90A20FFF783FC082048
:1015600000F0E2F90A20FFF77DFC802000F0DCF9B2
:101570000A20FFF777FC092000F0D6F90A20FFF7D0
:1015800071FC062000F0D0F90A20FFF76BFC0B205D
:1015900000F0CAF90A20FFF765FC2D2000F0C4F91D
:1015A0000A20FFF75FFC0B2000F0BEF90A20FFF7CE
:1015B00059FC262000F0B8F90A20FFF753FC0B2055
:1015C00000F0B2F90A20FFF74DFC372000F0ACF92B
:1015D0000A20FFF747FC0B2000F0A6F90A20FFF7CE
:1015E00041FC4E2000F0A0F90A20FFF73BFC0B2045
:1015F00000F09AF90A20FFF735FC822000F094F9F8
:101600000A20FFF724FC0B2000F08EF90A20FFF7D8
:1016100029FC862000F088F90A20FFF718FC0B202F
:1016200000F082F90A20FFF71DFC872000F07CF90A
:101630000A20FFF70CFC082000F076F90A20FFF7DB
:1016400011FC382000F070F90A20FFF70BFC10BDE8
:10165000000C0140FFF7F1FEFEF776FEFFF71EFAE1
:101660004FF4E130FFF74CFAFEF704FFFFF738F9CB
:10167000FEF71EFFFFF714FFFFF7E4FBFFF71CFE6A
:101680000020FFF7FBFB514A09210120FEF718FE5D
:101690004F4A0A210120FEF713FE4E4A0B2101207A
:1016A000FEF70EFE4C4A0C210120FEF709FE4BA26C
:1016B00006210420FFF7A2FE4AA209210420FFF719
:1016C0009DFE81E04948006801287DD100204749FE
:1016D000086000214648FFF768F900F0A3F800F021
:1016E000F9F8444800680A2802DB002042490860F3
:1016F0004148006841490968884213D000204049A8
:10170000086080203F490860FFF7D6FD3A4800682E
:10171000FFF7B4FB3C480068FFF768FC3B480068F3
:10172000FFF78CFD3448006834490860364800688B
:10173000374908600846006836490968884213D06E
:1017400000202F49086080202E490860FFF7B4FD73
:1017500029480068FFF792FB2B480068FFF746FC1A
:101760002A480068FFF76AFD29480068294908608F
:101770002648006828490860084600682749096823
:10178000884213D000201E49086080201D4908604F
:10179000FFF792FD18480068FFF770FB1A480068D1
:1017A000FFF724FC19480068FFF748FD1A48006855
:1017B0001A4908601048007819490870FFF726FB9D
:1017C00001210B48FFF7F1F87CE7000070000020D2
:1017D00050000020F001002050030020CBD9B6C8F3
:1017E0003A00000033304B6D2F48000014000020F9
:1017F00000040040142B00203000002034000020A2
:10180000242B0020282B0020182B00201C2B00202C
:101810004000002044000020380000203C00002050
:101820002C2B002023480068C0F34000C0F10100C9
:10183000214908602148006800F00100C0F1010062
:101840001F49086000201F4908601B4800681C49A8
:101850000968084401282CDC17480068012805D1D4
:101860001948006810B90020184908601448006839
:10187000012807D11648006820B914480068401CA8
:101880001249086011480068032803DB03200F4950
:10189000086006E00D480068002802DC00200B49C3
:1018A000086005480068084908600548006808495C
:1018B00008607047080C014018000020080801402B
:1018C0001C00002020000020240000203000002008
:1018D0002800002010480068C0F300100F4908607D
:1018E0000D480068C0F340100D4908600B480068BF
:1018F0000968084401280BDB0A480068401C0949B4
:10190000086008460068C82805DBC820086002E0B7
:101910000020044908607047080801404800002082
:101920004C000020142B002070B504464FF4807149
:101930001948FEF79AFD4FF480411848FEF795FDCF
:10194000002520E04FF480511448FEF78EFD08205A
:10195000FFF788FA04F0800028B14FF400510F48D7
:10196000FEF785FD04E04FF400510C48FEF77DFDC5
:101970004FF480510948FEF77AFD0820FFF772FA0C
:101980006400681CC5B2082DDCDB4FF4807102488E
:10199000FEF76DFD70BD000000080140000C014025
:1019A00070B504464FF480711748FEF75EFD4FF4A2
:1019B00080411648FEF75BFD00251DE04FF4805185
:1019C0001248FEF752FD0820FFF74CFA04F08000A1
:1019D00028B14FF400510D48FEF749FD04E04FF4E3
:1019E00000510A48FEF741FD4FF480510748FEF7C9
:1019F0003EFD6400681CC5B2082DDFDB4FF480712A
:101A00000148FEF734FD70BD00080140000C0140A4
:101A100070B504460A20FFF787FF09480068401C9C
:101A20000749086008460068FFF77EFF002504E0CC
:101A30002078FFF7B5FF641C6D1C202DF8D370BD16
:101A4000282B0020641A0008000000202C2B000026
:101A50006C010008D42200082C2B0020B4060000E2
:101A6000C8010008412D01020304040009280607EB
:101A7000080902040608DA6408610A19FF01414BEB
:101A80000FFF02A901691449203A09025CF9FF819C
:101A9000025AF91269202B083F025CF83F80023A93
:101AA000F8107B083F202A07025CF80780023AF80A
:101AB000107B0807202A01025CF80180023AF81026
:101AC0007B08012011290212F85A80023AF8101AF4
:101AD000081A49E00A153F0249E089CEE902692067
:101AE0000A1501026920CB707F021159087920CABA
:101AF0000F021159087920CA0102115908492061C1
:101B00007E231864A4240203107318100903180418
:101B1000A404A403A4190619080916200C1424030C
:101B20002420130798193C1A01222A0202091440A2
:101B30003B24073E091440291E29802982091020D0
:101B40001E0118032405021D0FA4012402091360BD
:101B50001139A0091440492049A21B0624AE0911DD
:101B600060395A3902FA03201112189A2402F960D6
:101B700014308049124A1234120B96148024804388
:101B80009AFF010114A9200B2407E002092A340955
:101B90001E74118A3F020B100FC00212FC89020B47
:101BA0001003F002091234A902091234091E40A9D7
:101BB00094091234A994118A07028B01FF02691457
:101BC00012E0091C02A940091202093240A9880941
:101BD00012348BFF8002A9EC49FE490281A9EC492D
:101BE000FEC902011D1954E9309AFF022954797C7B
:101BF0000A14FF02697CC1A9440943C09944B9028F
:101C0000312924A944E95081B97C9944091274A965
:101C100044013072042A789C313286320732CDB2C8
:101C20008072203A01DF210227E029545A813032A4
:101C3000065A1C449AEC603208B2109AA070012433
:101C40005A7F4C295C72F09AE66032059AFF100ABE
:101C50002DA5605A1FBC29B869449AE70C32049A32
:101C6000480C29D0691C0120295429ACDA0C143203
:101C7000F772C029AC696032023210022B40321C6C
:101C8000B2183203321272B029509A8F60290401BF
:101C90002C5A3CA4694C5A06649A9814B291022BAF
:101CA00082320132F89A604C5A0E60728C3205B260
:101CB0009932BF0A25E05C3207327872C029C832F7
:101CC0009C323D728432049AA534022B0229BC3224
:101CD000F0728032435ABC4472C4320872D22990E6
:101CE00029040128292C9A31605A06D04172EC321D
:101CF000389A92C09A0A300120327AB261320C725C
:101D0000E029C869C09A8C603212022740293069E4
:101D10005041321972C09A9C609A88303262022314
:101D2000303206321FB2C25A3FFC2974A9609A941D
:101D3000600A2902BC32E772C429385A7E18DAF9DF
:101D400060B2A2092660693CB2C05A7CD83242B265
:101D50008C5AC1D8413288022720325172842934EA
:101D600032F832039AC2C029102918810A298960E1
:101D70009A236032225AE05032C5721C5A02E80996
:101D80002E6032185AC7F0415A266032019A8154A7
:101D900009366032079A093C5A24604129C49A30B6
:101DA0000C0A31F860419A136032389AB0B481A9B4
:101DB000C029940A29E960B27229B0091E60092A73
:101DC000C029F8B282293432983204DA06280A315E
:101DD000F86041A94829345A9CAC296401180926A5
:101DE00060295CDA3C600A11CC60321F0A31BF60A6
:101DF0003201DAEC60324C3210B20C29100A31A1F7
:101E00006041A9485A3060293C29C40916600A2556
:101E1000E9603202DA1848296041A960321F72BFB6
:101E200032070A2509603201F2F8091260A9C029B7
:101E3000940A25116041F230726CE9D8696069102A
:101E40000926600A11706029D8A978321FB2BF290B
:101E50005C092660F2603266DA03600912C001286C
:101E6000F2C0326EDA026001100227083201F280FD
:101E7000322FDA426032070233FC0A110360323B30
:101E80003224B2205A0404693432FF0223E0299834
:101E90000110296032980A15606041022708021378
:101EA0000E32333294DA40880A31FC600A15F86049
:101EB000DAAC600932C0321F0A15E060328F0A15B1
:101EC000C0603201DAFF2081327F5AFE24A9F081FE
:101ED0003250323F3297B2809A0730293C29C0A94C
:101EE000E04132035AF02C0916809A3060C129541F
:101EF0000A1D10609A0F942948011429183211F212
:101F00009F29142904091A6002231C29A42948F2D4
:101F10009C0A2109600A2578602904F2F032059AAA
:101F2000126029706960291032FF0223E05A28608C
:101F300041DAFC60DA14C09A80102904021BC069DF
:101F40002C5A04603203B28E29406978412960819D
:101F500032069A3F440110293CE960293429048162
:101F600029409AFF28A960320D021BC6A960295496
:101F70003218321C021B02B27FDA12EC021320A9C3
:101F8000C032580A1D7060B2415A15908102133058
:101F90009A40F832535AC0CC81320F0A15FE603293
:101FA0002AB23802131069D4320A5A5FC0021BF4F5
:101FB000B27F5A22F481021B1829B4299C0A1D8F72
:101FC00060A9C00A2952605A1E6432070A2574604B
:101FD000DA5660021B105A34803223021B78B27F1B
:101FE0000A214660A91432E0DA0360323F32FF0270
:101FF00013800A2954C0721FE960419A401C5AF7A5
:102000008841DA446001240A19F260320232140A6B
:102010001520C0691801180A1101605A04A8092284
:10202000606988011832070A113660724232033241
:10203000F79AE060022348323C32805A0E60B2F8D0
:1020400032080A1941C0092260721F5A9C6CB2D82A
:102050005A10F82980E9600A255260413201323075
:10206000327CB2D0294C6960320332F772E05A32C6
:1020700060291C012032045A6060DA90782960419E
:10208000E9C0323A0A214C602920327032C0DA7D30
:10209000606920A98869700A212A6029A05AF0FC89
:1020A0002928327FDA1050724432070A2DE2602963
:1020B0005832F8720E0A196B6032029A42500922A5
:1020C0006029945AFC646960B23032059AFF6069F5
:1020D000BC69609A8C14298C011029B8296472C0DB
:1020E00032CB0A1520C029EC32CF72E0323A9AC8BE
:1020F0006002130CF218DACAA4B23F29C0B241320E
:10210000329A8890091260F2F09A8ECC69C00A1552
:10211000FE6032720A1998AC29F0A94C3201329C47
:10212000B28029949A8230B2C1DA7354F21EE91057
:10213000091260DA0EC09A5FF4DA6760DA37B00A23
:10214000117860DA99609A15C02960B241DAE660C8
:102150009A318CDA0F6C6960DA3B60DA14C09A62EB
:1021600020DAC6603260327F9AFF34C12974298434
:10217000C13224721032039AC2609ACC1C3228DA1F
:10218000E0700110323EF2735A059041320632443B
:1021900072409A906032099AC0100114297CF2D2E0
:1021A0005A049C8169605A01C87230DA1110011416
:1021B00032480A11CE602954A9245A20604169503E
:1021C0007223021B60324C0A118E60B2823250328E
:1021D000109A036029D07206021BC03247F2845A5B
:1021E00005AC29FCC19A026029040A150C28C10219
:1021F000134329C029B0412940DA3F44295C419A60
:102200001CD401180A1D416041DA886072203238FE
:10221000021F060A39226032700A350860B2FF29AF
:1022200044A9607240DAC08801140A1514600A19C2
:10223000116029585A031469CC092A609A3F603208
:10224000079A88607201DA0FCC0118299C091EC018
:102250009ABE6072069A0CC40130E960A9C0291CBC
:10226000419A186C0932609AFF54A96029B8410A52
:102270001569FC0926600A1510C029B841DADA246C
:10228000092E60DA286072902954320132920237A6
:1022900060DA076032A89A5060320332300237C0E9
:1022A0003238B244DAC8603206322102378029441B
:1022B000B2825A88B0691C320C023B235A01048155
:1022C0005A085869602910023B227202021B8029B9
:0422D0001C000000EE
:0400000508000131BD
:00000001FF
