:020000040800F2
:100000009829002045010008A10F0008750E00087E
:100010009D0F0008F50100086D1C0008000000009D
:10002000000000000000000000000000391200087D
:100030009D03000800000000151000086F13000861
:100040005F0100085F0100085F0100085F01000810
:100050005F0100085F0100085F0100085F01000800
:100060005F0100085F0100085F0100085F010008F0
:100070005F0100085F0100085F0100085F010008E0
:100080005F0100085F0100085F0100085F010008D0
:100090005F0100085F0100085F0100085F010008C0
:1000A0005F0100085F0100085F0100085F010008B0
:1000B0005F0100085F0100085F0100085F010008A0
:1000C0005F0100085F0100085F0100085F01000890
:1000D0005F0100085F010008111700085F010008B8
:1000E0005F0100085F0100085F0100085F01000870
:1000F0005F0100085F0100085F0100085F01000860
:100100005F0100085F010008D11300085F010008CB
:100110000D1700085F0100088D1500085F01000839
:100120005F0100085F0100085F0100085F0100082F
:10013000DFF80CD000F04CF800480047152200080A
:10014000982900200648804706480047FEE7FEE75A
:10015000FEE7FEE7FEE7FEE7FEE7FEE7FEE7FEE777
:10016000711300083101000840EA01039B0703D026
:1001700009E008C9121F08C0042AFAD203E011F8E6
:10018000013B00F8013B521EF9D27047D2B201E0A8
:1001900000F8012B491EFBD270470022F6E710B58C
:1001A00013460A4604461946FFF7F0FF204610BDE5
:1001B000421C10F8011B0029FBD1801A704703462E
:1001C00011F8012B00F8012B002AF9D118467047CD
:1001D000064C074D06E0E06840F0010394E8070094
:1001E00098471034AC42F6D3FFF7A6FF3C4900080D
:1001F0005C49000800BFFEE721B1026842F001023D
:10020000026004E002684FF6FE731A400260704715
:1002100001684FF6FE7211400160002101604160EB
:100220008160C1604B49884208D14A490839496810
:1002300041F00F01474A083A51608AE045491431BC
:10024000884208D143490839496841F0F001414AE0
:10025000083A51607DE03F492831884208D13D4944
:100260000839496841F470613A4A083A516070E0CF
:1002700038493C31884208D136490839496841F447
:100280007041344A083A516063E032495031884243
:1002900008D130490839496841F470212D4A083A9B
:1002A000516056E02B496431884208D12949083908
:1002B000496841F47001274A083A516049E02549EC
:1002C0007831884208D123490839496841F0706182
:1002D000204A083A51603CE01F49884206D1011F7C
:1002E000096841F00F01021F116032E01A49143110
:1002F000884208D11849091F096841F0F001164ADF
:10030000121F116025E014492831884208D1124992
:10031000091F096841F470610F4A121F116018E04B
:100320000D493C31884208D10B49091F096841F445
:100330007041094A121F11600BE007495031884291
:1003400007D10549091F096841F47021024A121FAB
:1003500011607047080002400804024010B50022F6
:10036000026847F6F0739A430C6A8B6823430C6962
:1003700023434C6923438C692343CC6923434C6A50
:1003800023438C6A23431A430260CB6843600B68A3
:1003900083604B68C36010BD4160704770470000C8
:1003A00070B50446002500F0ADF9FF22002110468B
:1003B00000F068FA04E0681C85B2012001F05AFDE3
:1003C0001D2000F05AF900F0010010B9B5F5FA7FD0
:1003D000F1DBB5F5FA7F01DB012070BD00204C494F
:1003E00008600021082000F029FA0021092000F00F
:1003F00025FA00210C2000F021FA00210D2000F048
:100400001DFA10210A2000F019FA1A210B2000F021
:1004100015FA1121042000F011FA1A21052000F02C
:100420000DFAFF21062000F009FA1F21072000F035
:1004300005FAB021382000F001FA3F21282000F011
:10044000FDF93021292000F0F9F9F921302000F0E0
:10045000F5F9F721312000F0F1F90D21C02000F06D
:10046000EDF90021C12000F0E9F93322C2218020FA
:1004700000F008FA1221C62000F0E0F90C21C72094
:1004800000F0DCF91521C42000F0D8F9EE21CA20D3
:1004900000F0D4F90521CB2000F0D0F92178E42038
:1004A00000F0CCF96178E52000F0C8F9A178E220ED
:1004B00000F0C4F9E178E32000F0C0F92179E020F0
:1004C00000F0BCF96179E12000F0B8F94FF48071D7
:1004D000002000F01FF84FF48071102000F01AF88F
:1004E0001F2000F091F9C0221B21802000F0CAF9E2
:1004F00004221F21802000F0C5F9E42000F0BDF89F
:100500002178884201D1002067E7012065E70000DB
:10051000BC00002070B505460C4600262946D420B4
:1005200000F08CF9E1B2D62000F088F9C4F307217D
:10053000D72000F083F901E0701C86B2EA2000F0B9
:100540009CF800F0010018B140F6FF708642F3DB22
:1005500070BD00002DE9F04105460F46392000F03E
:100560008CF810B90020BDE8F081294801780020FE
:1005700000F064F926480088C0F30721012000F04C
:100580005DF900213A2000F09DF821490860002122
:100590003A2000F097F81E49096841EA00201C49FA
:1005A000086000213A2000F08DF8044600213A202E
:1005B00000F088F844EA0024241F00213A2000F0CB
:1005C00081F8064600213A2000F07CF846EA002631
:1005D000681EA04200D26C1E06F0800008B90024FC
:1005E00003E03946204600F053F8094801780C2012
:1005F00000F024F906480088C0F307210D2000F020
:100600001DF940221E21802000F03CF92046AAE777
:10061000BC00002070B504460D461121022000F0F8
:100620000DF91A21032000F009F911202044C1B26C
:10063000062000F003F941F611202044C0F3072101
:10064000072000F0FBF8002211467A2000F01AF98A
:100650002946204600F0FEF808221F21802000F0E5
:1006600011F91C2000F009F800F0020020B1082266
:100670001F21A02000F006F970BD10B504462046E9
:1006800000F0C2F82146002000F01CF810BD000068
:1006900070B505460C460020094908603A2000F074
:1006A00055FD05E06D1E002000F050FD2070641C1B
:1006B000002DF7D10020207001200149086070BD95
:1006C000AC01214270B505460C46002600200C49BD
:1006D000086004F01F0040EA0506304600F036FDD1
:1006E000FF2000F033FD064604F0800018B1FF2023
:1006F00000F02CFD0646012001490860304670BD1F
:10070000AC01214210B500F01BF8082000F048FDB4
:1007100040F2CF214FF47A7000F04CFF00200649E0
:1007200008600A2001F0A6FB01200449C1F8B001CD
:100730000A2001F09FFB10BDB001214200002142C0
:1007400000B587B00121080300F086FC01210420D8
:1007500000F082FC1020ADF804008DF807000320A3
:100760008DF8060001A9264800F0AAF810212448B7
:1007700000F07CF94FF4C050ADF8040001A9204806
:1007800000F09EF84FF4C0511D4800F06FF9E020D2
:10079000ADF8040018208DF8070003208DF806003E
:1007A00001A9174800F08CF8E021154800F05EF927
:1007B0000020ADF808004FF48270ADF80A00002068
:1007C000ADF80C00ADF80E00ADF810004FF400705D
:1007D000ADF812003820ADF814000020ADF8160076
:1007E0000720ADF8180002A9064800F007FD012116
:1007F000044800F0E9FCFF2000F0A8FC07B000BDB1
:10080000000801400030014010B5044604F06000CB
:100810000949097888420ED003221F21A02000F048
:1008200031F8C4F341121F21802000F02BF804F0AE
:1008300060000149087010BDB800002070B5044682
:100840000D462046FFF7E0FF2A462146402000F0F3
:1008500019F870BD70B504460D46002008490860BF
:100860007A2000F073FC04E0641E287800F06EFC2F
:100870006D1C002CF8D101200149086070BD0000FA
:10088000AC0121422DE9F04104460D4616460027F1
:1008900000200949086005F01F0040EA04073846B7
:1008A00000F054FC304600F051FC01200349C1F82F
:1008B000AC01BDE8F0810000AC0121420000214202
:1008C0002DE9F041024600250026002000230024E7
:1008D000002791F803C00CF00F0591F803C00CF04D
:1008E000100CBCF1000F03D091F802C04CEA0505D2
:1008F00091F800C0BCF1000F31D0146800202BE04B
:100900004FF0010C0CFA00F3B1F800C00CEA03063A
:100910009E4220D183004FF00F0C0CFA03F7BC432A
:1009200005FA03FC4CEA040491F803C0BCF1280F5B
:1009300006D14FF0010C0CFA00FCC2F814C00AE01A
:1009400091F803C0BCF1480F05D14FF0010C0CFA2F
:1009500000FCC2F810C0401C0828D1D31460B1F8C4
:1009600000C0BCF1FF0F34DD546800202EE000F120
:10097000080C4FF0010808FA0CF3B1F800C00CEABB
:1009800003069E4221D183004FF00F0C0CFA03F7AF
:10099000BC4305FA03FC4CEA040491F803C0BCF123
:1009A000280F05D100F1080C08FA0CF8C2F81480E1
:1009B00091F803C0BCF1480F07D100F1080C4FF0CB
:1009C000010808FA0CF8C2F81080401C0828CED3A1
:1009D0005460BDE8F0810000F0B50A460023002411
:1009E0000021002500F00046B6F1004F02D11D4E57
:1009F000F16901E01B4E7168C0F3034583B200F456
:100A00004016B6F5401F08D121F07061154E76688A
:100A100026F07066134F7E6012E000F48016B6F583
:100A2000801F06D1032606FA05F4A14341F0706148
:100A300006E0460D360103FA06F6B14341F0706157
:100A400022B1460D360103FA06F6314300F00046A6
:100A5000B6F1004F02D1034EF16101E0014E716029
:100A6000F0BD000000000140416170470161704726
:100A70002DE9F04104460D461A2004FB00F804EB72
:100A8000840000EBC40005EB4000877804260CE0EE
:100A900004EB840101EBC40105EB4101885D00F02A
:100AA00041FC3844C7B2701CC6B2162EF0DB0F2CC6
:100AB00002DDA7F10F00C7B23846BDE8F0810000A3
:100AC00070B504460D467DBB00261DE00120B040F8
:100AD000204028B14FF48071E048FFF7C7FF04E0E1
:100AE0004FF48071DD48FFF7BFFF4FF48061DB48B2
:100AF000FFF7BAFF012001F0BDF94FF48061D7483C
:100B0000FFF7B4FF701CC6B2082EDFDB4FF4007194
:100B1000D248FFF7A9FF012001F0ACF94FF40071B2
:100B2000CE48FFF7A3FF00BF022D29D1002619E010
:100B30000120B040204020B12021C848FFF796FF97
:100B400003E02021C548FFF78FFF8021C348FFF74E
:100B50008BFF012001F08EF98021C048FFF786FF4E
:100B6000701CC6B2082EE3DB4021BC48FFF77CFFB7
:100B7000012001F07FF94021B848FFF777FF00BF5F
:100B8000042D2BD100261BE00120B040204028B1CD
:100B90004FF40041B248FFF769FF04E04FF4004111
:100BA000AF48FFF761FF1021AC48FFF75DFF012060
:100BB00001F060F91021A948FFF758FF701CC6B278
:100BC000082EE1DB0821A548FFF74EFF012001F0C8
:100BD00051F90821A148FFF749FF00BF062D29D18F
:100BE000002619E00120B040204020B101219B489F
:100BF000FFF73CFF03E001219848FFF735FF042190
:100C00009648FFF731FF012001F034F904219348A1
:100C1000FFF72CFF701CC6B2082EE3DB02218F48C1
:100C2000FFF722FF012001F025F902218B48FFF791
:100C30001DFF00BF082D2BD100261BE00120B04076
:100C4000204020B120218748FFF710FF03E020213A
:100C50008448FFF709FF4FF400518348FFF704FF72
:100C6000012001F007F94FF400517F48FFF7FEFE25
:100C7000701CC6B2082EE1DB40217A48FFF7F4FE73
:100C8000012001F0F7F840217648FFF7EFFE00BFA2
:100C90000A2D29D1002619E00120B040204020B1C2
:100CA00004217048FFF7E2FE03E004216D48FFF7DE
:100CB000DBFE10216B48FFF7D7FE012001F0DAF8C8
:100CC00010216848FFF7D2FE701CC6B2082EE3DB85
:100CD00008216448FFF7C8FE012001F0CBF8082185
:100CE0006048FFF7C3FE00BF0C2D2FD100261DE08A
:100CF0000120B040204028B14FF400715B48FFF75D
:100D0000B5FE04E04FF400715848FFF7ADFE4FF414
:100D100000615648FFF7A8FE012001F0ABF84FF440
:100D200000615248FFF7A2FE701CC6B2082EDFDB3E
:100D30004FF480614D48FFF797FE012001F09AF8CB
:100D40004FF480614948FFF791FE00BF0E2D29D175
:100D5000002619E00120B040204020B12021444865
:100D6000FFF784FE03E020214148FFF77DFE80214C
:100D70003F48FFF779FE012001F07CF880213C48D4
:100D8000FFF774FE701CC6B2082EE3DB4021384822
:100D9000FFF76AFE012001F06DF840213448FFF7AB
:100DA00065FE00BF102D29D1002619E00120B040BA
:100DB000204020B104212E48FFF758FE03E0042113
:100DC0002B48FFF751FE10212948FFF74DFE012067
:100DD00001F050F810212648FFF748FE701CC6B2FB
:100DE000082EE3DB08212248FFF73EFE012001F038
:100DF00041F808211E48FFF739FE00BF122D2BD104
:100E000000261BE00120B040204028B14FF4805163
:100E10001548FFF72BFE04E04FF480511248FFF70E
:100E200023FE02211248FFF71FFE012001F022F8E5
:100E300002210F48FFF71AFE701CC6B2082EE1DB34
:100E400001210B48FFF710FE012001F013F80121EA
:100E50000748FFF70BFE00BF70BD0000001C0140FB
:100E6000000801400018014000100140002001402E
:100E700000140140704700004CF6CC400149086066
:100E8000704700000030004010B500F013F810BDAE
:100E900070B505460C4645F2555000F01FF828463F
:100EA00000F010F8204600F013F800F003F8FFF708
:100EB000E3FF70BD4AF6AA200149086070470000B0
:100EC0000030004001494860704700000030004099
:100ED0000149886070470000003000400149086007
:100EE0007047000000300040F0B58DB007460D4659
:100EF00016461C460E208DF8040003208DF80500D0
:100F000002208DF8060001208DF8070001A800F0EE
:100F100049F80121084600F07FF83846FFF778F9D4
:100F200011490C80029503960020049005940690C8
:100F30008020079000200890099020200A9000024D
:100F40000B9000200C9002A93846FFF707FA012108
:100F5000064800F058FD01213846FFF74DF90448D6
:100F600000F008F80DB0F0BD480000200038014046
:100F70005800024010B5044600212046FFF73CF916
:100F8000044801880448FFF707FA01212046FFF7CB
:100F900033F910BD480000205800024000BFFEE7B2
:100FA0007047000070B5002100230F22C47804B3FD
:100FB000154C246804F4E064C4F5E064210AC1F12E
:100FC0000403CA40447804FA03F1847814402143AE
:100FD00009010E4C0678A155047804F01F05012480
:100FE000AC4005786D11AD0005F1E025C5F8004174
:100FF00009E0047804F01F050124AC40044D067894
:10100000761145F8264070BD0CED00E000E400E0EC
:1010100080E100E07047000029B1064A52690243AE
:10102000044B5A6104E0034A52698243014B5A61FE
:10103000704700000010024029B1064AD2690243FD
:10104000044BDA6104E0034AD2698243014BDA615E
:10105000704700000010024029B1064A926902431D
:10106000044B9A6104E0034A92698243014B9A61FE
:10107000704700000010024030B50021002200241B
:1010800000232D4D6D6805F00C0121B1042905D018
:10109000082923D105E0294D056022E0274D056090
:1010A0001FE0254D6D6805F47012234D6D6805F441
:1010B0008034022505EB92421CB9214D5543056051
:1010C0000BE01D4D6D6805F400351DB11C4D5543F9
:1010D000056002E0194D5543056002E0174D0560BB
:1010E00000BF00BF144D6D6805F0F0010909154DF2
:1010F0006B5C0568DD4045600F4D6D6805F4E0618F
:10110000090A104D6B5C4568DD4085600A4D6D68CD
:1011100005F46051C90A0B4D6B5C4568DD40C56044
:10112000054D6D6805F44041890B074D6B5CC56842
:10113000B5FBF3F5056130BD0010024000127A00E6
:1011400000093D008E0000209E00002070B505467D
:10115000002405E0601CC4B2C82C01DD002070BD75
:1011600002210E4800F03CF80028F3D029460B4835
:1011700000F042F8002405E0601CC4B2C82C01DD78
:101180000020ECE70121054800F02AF80028F3D000
:10119000024800F02EF8C0B2E1E700000030014044
:1011A00010B50446074800884FF6C7710840054946
:1011B000088008460088204308800121014800F08B
:1011C00003F810BD0030014021B1028842F0400216
:1011D000028004E002884FF6BF731A400280704715
:1011E0000246002013890B400BB1012000E00020D3
:1011F00070470146888970478181704710B5002289
:10120000028802F441520B884C8823438C88234384
:10121000CC8823430C8923434C8923438C89234363
:10122000CC8923431A430280838B4FF2FF742340FF
:1012300083830B8A038210BD704710B500F002F85B
:1012400010BD00000CB500200190009033480068EC
:1012500040F480303149086000BF3048006800F435
:10126000003000900198401C0190009818B9019836
:10127000B0F5A06FF1D12948006800F4003010B13A
:101280000120009001E0002000900098012843D147
:101290002348006840F010002149086008460068B3
:1012A00020F0030008600846006840F00200086073
:1012B0001A4840681949486008464068486008462E
:1012C000406840F4806048600846406820F47C1024
:1012D00048600846406840F4E810486008460068E6
:1012E00040F08070086000BF0C48006800F000709B
:1012F0000028F9D00948406820F0030007494860F9
:101300000846406840F00200486000BF034840685B
:1013100000F00C000828F9D10CBD000000100240BC
:101320000020024010B501460A46C81701EB1070B4
:101330000B46CC1701EB14742411A1EB041404EB3D
:101340002010C0B210BD042808D14FF0E021096977
:1013500041F004014FF0E022116107E04FF0E0217D
:10136000096921F004014FF0E022116170477047D4
:1013700010B51348006840F00100114908600846A4
:101380004068104908400E494860084600680E4908
:1013900008400B4908600846006820F48020086077
:1013A0000846406820F4FE0048604FF41F00886043
:1013B000FFF743FF4FF000600449086010BD0000D4
:1013C000001002400000FFF8FFFFF6FE08ED00E00D
:1013D00010B50121534800F02CF9002873D00024E7
:1013E00097E05149601C085C012806D0022826D0ED
:1013F000032846D0042821D166E04B49A01C085C94
:10140000012806D0022809D003280CD0042814D1C2
:101410000EE02146B720FFF753FB0EE02146772070
:10142000FFF74EFB09E02146D720FFF749FB04E018
:101430002146F720FFF744FB00BF00BF66E03A49B2
:10144000A01C085C012806D0022809D003280CD073
:10145000042814D10EE02146AF20FFF731FB0EE047
:1014600021466F20FFF72CFB09E02146CF20FFF734
:1014700027FB04E02146EF20FFF722FB00BF00BF5F
:1014800044E02949A01C085C012806D0022809D0A4
:1014900003280CD0042814D10EE02146BB20FFF70E
:1014A0000FFB0EE021467B20FFF70AFB09E02146F7
:1014B000DB20FFF705FB04E02146FB20FFF700FBE4
:1014C00000BF00BF22E027E01749A01C085C0128EC
:1014D00006D0022809D003280CD0042814D10EE02D
:1014E0002146BF20FFF7ECFA0EE021467F20FFF7F0
:1014F000E7FA09E02146DF20FFF7E2FA04E021469F
:10150000FF20FFF7DDFA00BF00BF00BF00BFA01C37
:10151000C4B2132CFFF665AF0121024800F07AF83F
:1015200010BD0000000C0040A70A00207FB5054652
:101530000C4601210820FFF77FFDADF80850ADF8FB
:1015400004400020ADF80A00ADF8060001A90E48DD
:1015500000F08AF8012241210B4800F07BF80121BC
:10156000094800F05AF832208DF8000001208DF86B
:10157000010003208DF8020001208DF80300684669
:10158000FFF710FD7FBD0000000C004010B50121E9
:10159000064800F04EF820B105480068401C044998
:1015A00008600121014800F035F810BD001000402E
:1015B000C40000207FB505460C4601211020FFF72E
:1015C0003BFDADF80850ADF804400020ADF80A002E
:1015D000ADF8060001A90E4800F046F801224121AD
:1015E0000B4800F037F80121094800F016F83620C2
:1015F0008DF8000001208DF8010002208DF8020016
:1016000001208DF803006846FFF7CCFC7FBD000089
:1016100000100040CA430282704721B1028842F0A4
:101620000102028004E002884FF6FE731A40028035
:10163000704730B50246002000230024158A05EAD1
:101640000103958905EA010413B10CB1012000E002
:10165000002030BD1AB183890B43838102E0838966
:101660008B43838170470000002202881D4B984203
:101670000ED01D4B98420BD0B0F1804F08D01B4BC1
:10168000984205D01A4B984202D01A4B984204D186
:101690004FF68F731A404B881A43174B984207D066
:1016A000164B984204D04FF6FF431A40CB881A439A
:1016B00002808B8883850B8803850A4B98420BD068
:1016C000094B984208D00E4B984205D00D4B9842DA
:1016D00002D00D4B984201D10B7A038601238382FD
:1016E00070470000002C014000340140000400401D
:1016F00000080040000C00400010004000140040B2
:101700000040014000440140004801407047000093
:1017100010B540F22551A64800F097F980B140F28B
:101720002551A34800F060F9A14800F049FAC1B280
:10173000A04802680068401C9E4B18609E48815477
:10174000002020E09C49095CAB291AD19A4A411C2F
:10175000515CCD2915D100F11C01515CBC2910D17F
:1017600000F11D01515CDE290BD1002107E0821C34
:101770000A44914B9A5C914B5A544A1CD1B21A2993
:10178000F5DB411CC8B25A28DCDB8C48407D8C4913
:101790000870162007E089490A5CA0F11601894B00
:1017A0005A54411CC8B21A28F5DB8448007886498F
:1017B0000870012005E08149095C844A1154411CEC
:1017C000C8B21528F7DB804800788149097888423B
:1017D0000BD07D4800787E49087003F011F8142082
:1017E00000F048FB00207B49087000BF7548407836
:1017F0007449097840EA0120000272494978714A27
:10180000127841EA022140EA2120734908806D489C
:10181000C0786C49897840EA012000026949C9789A
:10182000684A927841EA022140EA21206A494880C8
:1018300000BF00BF084600886849088066484088A5
:10184000488000BF00BF5F4840785E49097840EAA1
:10185000012000025B4949785A4A127841EA022184
:1018600040EA21205C49088056488078012101EB3C
:101870000020000253498978012202EB012140EA4D
:1018800021205549488000BF00BF084600885449C0
:10189000088051484088488000BF00BF4FF6FF7065
:1018A0004D490880FF20488000BF00BF08460088DF
:1018B0004C49088048484088488000BF40F2D930F1
:1018C00001F0E0FE00BF3F4840783E49097840EA19
:1018D000012001023B4840783A4A127840EA02204F
:1018E00041EA20203C4908803648C078354989784B
:1018F00040EA012001023348C078324A927840EA37
:10190000022041EA20203449488000BF00BF084639
:1019100000883249088030484088488000BF00BFB6
:10192000284840782749097840EA012001022548E3
:101930004078244A127840EA022041EA20202649D1
:10194000088020488078012101EB002000021D4919
:101950008978012202EB012140EA21201E494880BA
:1019600000BF00BF084600881D4908801A4840880B
:10197000488000BF00BF4FF6FF7017490880FF2066
:10198000488000BF00BF08460088164908801248FA
:101990004088488000BF40F2D93001F073FE05480E
:1019A00000685A2802D100200249086010BD0000DA
:1019B000004400402C0000202D0100208701002061
:1019C0004E00002006000020380000209D0100206D
:1019D0004D0000200A00002020000020C800002048
:1019E000CC000020D000002010B50022002340F6DB
:1019F0006A14A14200D100BF0A1201249440A3B28C
:101A0000DC43048010BD21B1828942F400528281FE
:101A100004E082894DF6FF731A40828170471AB143
:101A2000838A0B43838202E0838A8B4383827047DD
:101A300002460020B1F5007F00D100BF13880B40A3
:101A40000BB1012000E00020704770B50246002471
:101A500000230025002040F66A16B14200D100BFE5
:101A6000C1F3421501F01F03012606FA03F3012D0D
:101A700002D19689334006E0022D02D1168A334006
:101A800001E0968A33400C12012606FA04F4168807
:101A9000344013B10CB1012000E0002070BDF0B55E
:101AA0000346002400260025002040F66A17B942AC
:101AB00000D100BF1846C1F3421401F01F060127F0
:101AC00007FA06F5012C01D10C3004E0022C01D1FB
:101AD000103000E014301AB107682F43076002E0AD
:101AE0000768AF430760F0BD2DE9F04786B00546B3
:101AF0000E460024A24600BFA1460027B08900B1CF
:101B000000BF2F462C8A4CF6FF700440F088044337
:101B10002C82AC894EF6F3100440B088318908431A
:101B2000718908430443AC81AC8A4FF6FF400440FE
:101B3000B0890443AC8201A8FFF79EFA1F48874290
:101B400002D1DDF810A001E0DDF80CA0A88900F4B6
:101B5000004040B10AEBCA0000EB0A1031684900AE
:101B6000B0FBF1F807E00AEBCA0000EB0A1031689D
:101B70008900B0FBF1F86420B8FBF0F00401200903
:101B8000642101FB1089A88900F4004040B1322093
:101B900000EBC900B0FBF1F000F00700044308E0DF
:101BA000322000EB09106421B0FBF1F000F00F00CF
:101BB00004432C8106B0BDE8F087000000380140E6
:101BC00001468888C0F308007047C1F3080282808C
:101BD0007047000070B504460D4600260DE000BFBA
:101BE00040210748FFF724FF0028F9D014F8011B13
:101BF0000348FFF7EAFF701CC6B2AE42EFDB70BDD0
:101C00000044004070B504460D4600260DE000BFBC
:101C100040210748FFF70CFF0028F9D014F8011BFA
:101C20000348FFF7D2FF701CC6B2AE42EFDB70BDB7
:101C30000038014070B504460D4600260DE000BF97
:101C400040210948FFF7F4FE0028F9D034F8021BC0
:101C50000548FFF7BAFF701CC6B2AE42EFDB0A20A0
:101C600000F008F970BD00000038014000BFFEE739
:101C70000FB4054B10B503A9044A029800F017F8F9
:101C800010BC5DF814FB0000311F00084400002068
:101C900002E008C8121F08C1002AFAD17047704735
:101CA000002001E001C1121F002AFBD170472DE97D
:101CB000F84F9946924688460546002706E02528B3
:101CC0000AD051464A4690476D1C7F1C2878002850
:101CD000F5D13846BDE8F88F002315F8011F1846E6
:101CE0002E2915D115F8011F04232A290DD06FF0D4
:101CF0002F022978A1F13004092C09D800EB8000CB
:101D000002EB400008446D1CF3E758F8040B6D1C0F
:101D10002A78002ADDD0632A07D0732A0FD0104614
:101D200051464A4690477F1C2AE018F8042B8DF84C
:101D3000002000218DF801106E46012103E058F8C3
:101D4000046B4FF0FF315A074FF0000401D409E053
:101D5000641C84420BDA8C42FADB325D002AF7D134
:101D600005E0641C8C42FCDB305D0028F9D127447F
:101D700004E016F8010B51464A469047641EF8D21B
:101D80006D1CA3E7F0B50B46144619461E19751EC7
:101D90000BE04E780F7806EB0726B2B28618B0B289
:101DA000904201DA461CB0B2891CA942F1D3A94283
:101DB0000AD10E78002707EB0626B2B28618B0B219
:101DC000904201DA461CB0B2F0BD10B5044602E004
:101DD000204600F00BF860780028F9DC10BD000008
:101DE0000148006870470000C400002070B5044638
:101DF00000256078002818DD606805786078012883
:101E000006D1606800F0A2F800206060A06009E0E0
:101E10006068806860606168486800F097F800203A
:101E2000616848606078401E6070284670BD0000A0
:101E300010B56FF00400FFF786FA0A4800680A49F7
:101E4000B0FBF1F0094908700846007800EB40014A
:101E5000C1EBC0104FF6FF7101EAC00004490880D1
:101E600010BD0000A400002000127A00C000002075
:101E7000C20000200146114A12884A434FF0E02375
:101E80005A6100229A611A46126942F001021A61EF
:101E900000BF4FF0E022106900F001021AB100F417
:101EA0008032002AF5D04FF0E022126922F00102C0
:101EB0004FF0E0231A6100229A617047C2000020AF
:101EC00070B504460E4660782178884219DA0C20F5
:101ED00000F062FA05462E700020A860607828B9EC
:101EE00000206860A560A068606006E0A068686087
:101EF000A0688560A0688068A0606078401C607001
:101F000011E061688868D4E901215160D4E90112C7
:101F10009160A1688968A160A1680E700021A26823
:101F20009160606000BF6078401EC0B270BD00006C
:101F300000BF054A128802F04002002AF9D0C2B25E
:101F4000014B1B1D1A807047004C004010B5002843
:101F500021D0114B0022001F196803E0814203D8F1
:101F60000A4649680029F9D152B11368841A9C4283
:101F700004D1006818441060104602E0506000E090
:101F8000186039B102680B1A934203D10B681A44E6
:101F900002604968416010BD0C01002008B50121B4
:101FA0000420FFF759F801210820FFF755F8012117
:101FB0001020FFF751F801212020FFF74DF80121F3
:101FC0004020FFF749F801218020FFF745F8012163
:101FD0000802FFF741F810208DF803000220ADF849
:101FE000000003208DF8020069467A48FEF768FC7D
:101FF00002217848FEF73AFD10208DF803004FF4D7
:10200000E060ADF8000003208DF8020069467248D8
:10201000FEF756FC0021FF20FEF752FD10208DF840
:102020000300E020ADF8000003208DF802006946AF
:102030006948FEF745FC0221FF20FEF741FD102014
:102040008DF803001820ADF8000003208DF8020081
:1020500069466148FEF734FC01210846FEF7FCFFA3
:1020600001215E48FEF7B8FC10208DF80300C00285
:10207000ADF8000003208DF8020069465548FEF7D0
:102080001FFC0421FF20FEF71BFD10208DF803002C
:102090000720ADF8000003208DF8020069464E4885
:1020A000FEF70EFC0621FF20FEF70AFD10208DF83A
:1020B00003004002ADF8000003208DF802006946DD
:1020C0004748FEF7FDFB10208DF803006020ADF8B7
:1020D000000003208DF8020069464248FEF7F0FB3D
:1020E0000821FF20FEF7ECFC10208DF803001C20D7
:1020F000ADF8000003208DF8020069463948FEF76C
:10210000DFFB0A21FF20FEF7DBFC10208DF8030027
:102110004FF46060ADF8000003208DF802006946BE
:102120003148FEF7CDFB0C21FF20FEF7C9FC102043
:102130008DF80300E020ADF8000003208DF80200C8
:1021400069462A48FEF7BCFB0E21FF20FEF7B8FCCB
:1021500010208DF803001C20ADF8000003208DF83E
:10216000020069462148FEF7ABFB1021FF20FEF775
:10217000A7FC10208DF803000002ADF8000003203A
:102180008DF8020069461648FEF79AFB10208DF87C
:1021900003000320ADF800008DF8020069461348E3
:1021A000FEF78EFB1221FF20FEF78AFC10208DF82F
:1021B00003000001ADF8000003208DF8020069461D
:1021C0000448FEF77DFB4FF480710248FEF74EFC99
:1021D00008BD000000080140001C01400002300062
:1021E000001001400018014000200140001401408F
:1021F0000146080240EA212080B2704770B50546CA
:102200000C2000F0C9F804462570002060702046BC
:1022100070BD000008B54FF4164000F06FFEFFF7E8
:1022200007FEFFF7BBFE4FF4164000F0B9FE4FF477
:10223000164000F021FE41F61F4142F20F70FFF7F9
:1022400075F940F271210520FEF722FE4B234A4A20
:102250004A494B48FEF748FE00BF00F0DDFB00286E
:10226000FBD101F0C7F900BF4648407845490978DD
:1022700040EA0120000243494978424A127841EA83
:10228000022140EA212080B2ADF800003D48C0782C
:102290003C49897840EA012001023A48C078394A2D
:1022A000927840EA022041EA202080B2ADF8020094
:1022B00000BF00BFBDF8000033490880BDF8020030
:1022C000488000BF00BF2F4840782E49097840EA77
:1022D000012000022B4949782A4A127841EA02215A
:1022E00040EA212080B2ADF8000026488078012124
:1022F00001EB0020000223498978012202EB012131
:1023000040EA212080B2ADF8020000BF00BFBDF856
:1023100000001E490880BDF80200488000BF00BFD1
:102320004FF6FF70ADF80000FF20ADF8020000BFCF
:1023300000BFBDF8000016490880BDF802004880C3
:1023400000BF40F2D93001F09DF913E000F0FCF835
:1023500010480078401C0F4908700846007805288E
:1023600005DA02F04DFA1420FFF784FD02E00620A2
:1023700008490870EAE70000140100200438014011
:102380005800024006000020C8000020CC000020B9
:10239000D00000200A000020F0B50B30154D20F0D1
:1023A00007010024144A0FE003688B420BD38B42D1
:1023B00005D95E1A43184768C3E9006700E043681F
:1023C000136002C004E0021D10680028ECD1204612
:1023D000002802D1286808B10020F0BD064A07484D
:1023E0001060074A121A22F00702C0E900240120F7
:1023F0002860D7E7100100200C0100209C2300205A
:102400009825002002463AB1907D012804D1507DE4
:10241000884201DD506810B94FF0FF3070475368B3
:1024200002E09B68481EC1B20029FADC1878F5E783
:102430002DE9F04780460D4691461E46089FA81993
:10244000B84201DCA81910B90020BDE8F0871820B7
:10245000FFF7A2FF04463846FFF7D0FE20600020B9
:102460006060C4F808802573C4F810902675207B3E
:10247000381A217D401A60750020A07503E0002104
:102480002068FFF71DFD381EA7F10101CFB2F6DC71
:102490002046DAE72DE9F04104460F4614B9002042
:1024A000BDE8F08139462068FFF70AFD206886689C
:1024B000257D09E0681E2169085C3178884200D0DA
:1024C00021E07668681EC5B2002DF3DC20684668FE
:1024D000002508E03078A168495D884200D012E00C
:1024E000B668681CC5B2207BA842F3DC606818B9E6
:1024F000607D002800DD6660A07D012801D00120FC
:10250000A075A07DCCE7606808B100206060A07D68
:1025100008B10020A075A07DC2E710B5044604B93B
:1025200010BD206800F006F82046FFF70FFD0024DC
:1025300000BFF5E710B504462046FFF746FC2046ED
:10254000FFF704FD002410BD38B50120FE490870D6
:1025500053E2FD480078FD498880FB480078FC493B
:102560008870FC48F8490978405C012803D10521AE
:10257000F648FFF75FFB6420FFF77CFC192002237D
:10258000F54A03210090F248FFF752FF054600206C
:10259000F249086014E0F248F0490968405CEA49F1
:1025A000097801EBC10202EB0111EE4A02EB410195
:1025B000EA4A12688854E9480068401CE749086004
:1025C000E64800681928E6DB1921E548FDF7E5FD36
:1025D0000520FFF74FFC0020E049086098E0DA484A
:1025E000007800EBC00202EB0010DE4A02EB400074
:1025F000DA4A1268815C2846FFF74CFF01287DD13A
:10260000D149097801EBC10202EB0111D54A02EB75
:1026100041003221FDF7C1FD0420D349087018E0C4
:10262000D1480078001FC1B22846FFF7EBFEC1B2C7
:10263000C548007800EB800202EBC000CB4A02EBF9
:102640004000C94A12788154C7480078401CC649E6
:102650000870C54800781828E2DB002012E0BA496B
:10266000097801EB810202EBC101C04A02EB410291
:10267000811D515CBE4AB44B1B7802EB031211540E
:10268000411CC8B21028EADB13212846FFF7BAFE26
:10269000AD490978884227D10020B649AA4A127864
:1026A0008854B249A8480078FEF7E2F9B2490860B8
:1026B00012212846FFF7A6FEB049086008460068C8
:1026C000AD49096888421ED10121AD489E4A127861
:1026D00081540120AB499C4A12788854AA499A4AED
:1026E000127888540FE009E0A24897490978405CC5
:1026F000401CA049944A1278885404E00121A34860
:10270000914A1278815495480068401C93490860AA
:10271000924800681928FFF662AF8B4800780A28B3
:1027200039D198484078002141EA4000954989789C
:102730000843974908709348C078C00191490979C6
:1027400040EA81108F49497940EA41108D498979E1
:1027500040EA01108B49C97940EAC1008949097AE8
:1027600040EA81008749497A40EA41008549897AEF
:1027700008438749487002218548FFF72BFA012456
:1027800007E07B4901EB04101021FFF723FA601CDE
:10279000C4B20B2CF5DB6C480078142839D1794889
:1027A000C07A802141EA40007649097B0843794993
:1027B00008707448407BC0017249897B40EA8110EF
:1027C0007049C97B40EA41106E49097C40EA01101A
:1027D0006C49497C40EAC1006A49897C40EA810031
:1027E0006849C97C40EA41006649097D0843694956
:1027F000487002216748FFF7EDF90B2407E05C49B8
:1028000001EB04101021FFF7E5F9601CC4B2152C90
:10281000F5DB2846FFF781FE5C484B490978405CB0
:10282000012836D100205949487052484649097854
:10283000405C401C4F49444A12788854084642493B
:102840000978405C0A280FDD4A483F490978405C16
:102850000F2809DC03204A493B4A12788854012199
:102860004948394A12788154424837490978405CCE
:102870000F280EDD02204249334A12788854002086
:102880004049314A1278885402203F492E4A127832
:10289000885430482C490978405CF8B904203849FC
:1028A000294A1278885400203649274A12788854D9
:1028B00003213548244A1278815404200CE0002179
:1028C000214A127802EB820303EBC202274B03EB8F
:1028D00042021154411CC8B21828F0DB55201A4995
:1028E000097801EB810202EBC101204A02EB4101B0
:1028F00048701549097801EB810202EBC1011B4ABE
:1029000002F81100104800780F49097801EB8102A4
:1029100002EBC101154A02EB410188701A480A49CD
:102920000978405C0849097801EB810202EBC1019A
:102930000E4A02EB4101C8700D200349097801EBF2
:10294000810202EBC10127E060000020840000202A
:10295000780000209D0100207B00002074000020F2
:1029600014010020E00100204C0000207806002027
:10297000C4080020BC0A0020800000205C00002069
:10298000A70A0020AF080020140A0020D10A002066
:102990004F000020510000201B4A02EB4101487605
:1029A0001A49097801EB810202EBC101164A02EBD8
:1029B0004101087600F096FE1548FEF7DBFAFEF7B7
:1029C00063FA144811490978405C022810D10420A8
:1029D0000CE000210D4A127802EB820303EBC202E5
:1029E000094B03EB42021154411CC8B21828F0DB1A
:1029F00006480078401C05490870044800781528EE
:102A0000FFF6A7AD38BD000078060020600000206A
:102A100058000240A70A002070B500250A48FDF7BB
:102A2000BFFC0546002405E00748005D074908553E
:102A3000601CC4B2062CF7DB40F276411420FDF78F
:102A400069FD284670BD000036490008D40000200A
:102A500010B5034940F2EE50FDF77CFD80B210BD89
:102A6000E80A002010B5034903480088FDF7D2FDAD
:102A700010BD0000E80A0020E400002010B5044862
:102A8000007820F080000249087000F0ABF810BD1B
:102A9000080100200349096801F11C000021816040
:102AA00070470000EC00002010B50448007820F0CA
:102AB00080000249087000F095F810BD0801002060
:102AC00010B50948006800F11C040848007840F07F
:102AD00080000649087000202070A0606068FDF743
:102AE00067FBA06010BD0000EC0000200801002082
:102AF00010B53648006800F11C043548007800F035
:102B0000200008B1FFF7BAFF3148007800F08000DC
:102B100008B100F08DF82E48007800F0100008B1E0
:102B2000FFF7C2FF2A48007800F0400008B1FFF725
:102B3000C7FF2748007800F0010008B1FFF7AAFF9F
:102B40002348007800F00200C8B12248007800F065
:102B50004000F8B920480088C72804DD00201F493C
:102B6000096881F8C7001D4801681D48FDF727FB6B
:102B70001848007840F04000164908700AE01548EF
:102B8000007800F0200028B11248007820F02000E2
:102B9000104908700E48007800F0040098B90C48FD
:102BA000007800F0020070B90948007800F00100D8
:102BB00048B90748007800F0400020B90448007880
:102BC00000F0080008B100F023F810BDEC00002070
:102BD000E800002008010020E4000020DC000020C4
:102BE0000822002038B500BF4AF6C000ADF800004A
:102BF00046F20170ADF8020000BF4FF4AF60FFF77E
:102C0000F7FA04462146684600F06CFC38BD000027
:102C100010B50648006800F11C04A068002803DD18
:102C2000D4E9010101F0AAFD10BD0000EC00002074
:102C30000348007820F080000149087070470000C8
:102C40000801002010B50E4800688088A0F2D93035
:102C500020B1A0F59840273818B903E000F048F8F3
:102C600000E000BF00BF06480068C088A0F5F04043
:102C7000053810B9FFF73CFF00E000BF00BF10BDF2
:102C8000EC0000200348007820F080000149087023
:102C900070470000090100200349096801F11C0088
:102CA0000021816070470000EC000020034800789C
:102CB00020F08000014908707047000009010020E1
:102CC00010B50948006800F11C040848007840F07D
:102CD00080000649087000202070A0606068FDF741
:102CE00067FAA06010BD0000EC0000200901002080
:102CF00010B53948006800F11C043848007800F02D
:102D0000200008B1FFF7BEFF3448007800F08000D3
:102D100008B100F08DF83148007800F0100008B1DB
:102D2000FFF7C4FF2D48007800F0400008B1FFF71E
:102D3000C7FF2A48007800F0010008B1FFF7ACFF98
:102D40002648007800F00200C8B12548007800F05D
:102D5000400020BB23480088C72804DD002022490A
:102D6000096881F8C700204801682048FDF727FA64
:102D70001B48007840F04000194908700FE01848DF
:102D8000007800F0200050B118486060FDF710FA9C
:102D9000A0601348007820F02000114908700F4807
:102DA000007800F0040098B90C48007800F00200A8
:102DB00070B90A48007800F0010048B90748007867
:102DC00000F0400020B90548007800F0080008B184
:102DD00000F00EF810BD0000EC000020E80000201C
:102DE00009010020E4000020DC000020D0220020A7
:102DF00010B50C48006800F11C040B48007800EB8B
:102E0000800101EBC000094901EB400060601A201D
:102E1000A060A068002803DDD4E9010101F0AEFC48
:102E200010BD0000EC0000206000002078060020AB
:102E30000348007820F080000149087070470000C6
:102E40000901002010B50446FEF7CAFF2168401AA8
:102E50006168884201DB012010BD0020FCE7D0E959
:102E6000001211440160704770B504460D4665605C
:102E7000FEF7B6FF206070BD10B586B00446012194
:102E800044F20500FEF7E8F84FF40070ADF81400C6
:102E900003208DF8160018208DF8170005A9154895
:102EA000FDF70EFD4FF48060ADF8140004208DF89E
:102EB000170005A90F48FDF703FD01940020ADF8A8
:102EC0000800ADF80A00ADF80C00ADF810000C20B9
:102ED000ADF80E0001A90848FEF706FE01210648DC
:102EE000FEF791FD012240210348FEF798FD06B050
:102EF00010BD0000000801400038014010B586B048
:102F0000044601214804FEF797F801210420FEF74A
:102F1000A3F80420ADF8140003208DF81600182043
:102F20008DF8170005A91C48FDF7CAFC0820ADF86C
:102F3000140004208DF8170005A91748FDF7C0FC00
:102F400026208DF8000001208DF8010000208DF86A
:102F5000020001208DF803006846FEF723F8019473
:102F60000020ADF80800ADF80A00ADF80C00ADF88F
:102F700010000C20ADF80E0001A90848FEF7B4FDC2
:102F8000012240F225510548FEF789FD0121034841
:102F9000FEF739FD06B010BD0008014000440040B6
:102FA00010B586B004460121C804FEF745F801219A
:102FB0001020FEF751F84FF48060ADF814000320A4
:102FC0008DF8160018208DF8170005A91548FDF793
:102FD00077FC4FF40060ADF8140004208DF8170062
:102FE00005A91048FDF76CFC01940020ADF808001D
:102FF000ADF80A00ADF80C00ADF810000C20ADF8EB
:103000000E0001A90848FEF76FFD012240F225518C
:103010000548FEF744FD01210348FEF7F4FC06B025
:1030200010BD000000100140004C0040C2780A446E
:10303000194BDA70827802EB21229A7042785A702A
:1030400002781A701A469278B2EB212F0ADA1A46E1
:103050005278521C5A701A4652781AB91A46127887
:10306000521C1A700C4AD278CBB29A4212DA0A4A2F
:103070009278521C084B9A701A46927852B91A46A6
:103080005278521C5A701A4652781AB91A46127857
:10309000521C1A7070470000F800002010B504465A
:1030A00021460D4800680830FFF7C0FF0B48007844
:1030B000094909680872094841780748006841725F
:1030C000064881780448006881720448C178024843
:1030D0000068C17210BD0000EC000020F800002064
:1030E00010B5354800882A2803D2002032490880CC
:1030F00010BD0020304908803048808AB0F5807FBC
:1031000003D0B0F5007F54D141E02C48C08C2C494D
:10311000098888423AD12948008D2949498888423E
:1031200034D126491631881D00F04AF94FF4007059
:10313000224988820846D1F816200262498B818490
:1031400020490A68C0F81620898841831D490A6809
:10315000C0F806208988418101460A6A0260898C8C
:103160008180808B1549C8840846C18B018514482D
:10317000008812498883124841881048C1834FF45F
:10318000C1600E4988812A200B49088011E00B4854
:10319000C08C0B49098888420AD10848008D08492B
:1031A0004988884204D105491631881D00F008F984
:1031B00000BF00BF00BF9BE7E4000020E80A00203A
:1031C000C8000020D400002010B55B48C08B5B49CC
:1031D000098888420CD15848008C5849498888424F
:1031E00006D1554856490A6802608988818091E075
:1031F0005148C08B53490988084053490988514AAE
:103200001288114088420BD14B48008C4D494988A7
:1032100008404D4949884B4A52881140884208D09D
:1032200000BF4A4800884A4908804848408848808A
:1032300008E000BF4048C08B454908803E48008CEC
:10324000488000BF00204349087016E041480078DC
:1032500000EB4000404901EB80043D480088218894
:10326000884205D13A4840886188884200D108E008
:1032700038480078401C37490870364800780828DC
:10328000E4DB00BF3348007808283ED1FF22062146
:103290002948FCF77BFF28480021016281842F49DF
:1032A0000A68C0F80620898841812C490A68C0F85C
:1032B00016208988418300BF254800881E49C8849C
:1032C000234841881C48018500BF00BF1E48008874
:1032D000194988831C4841881748C18300BF4FF4AF
:1032E000807015498882C881082008820620887469
:1032F0000420C8744FF4C160888101F13600184978
:1033000008602A201749088010BD0B4861680160D9
:1033100021898180084811490A68C0F806208988F7
:1033200041810820044988810E4800880E300D49EB
:10333000088000BFE8E70000E80A002032490008E2
:103340002C490008D0000020C8000020CC0000203C
:103350000001002004010020A8210020D40000204A
:10336000DC000020E400002012490978491C114AC1
:1033700011700021104A117017E00F49097801EB14
:1033800041010E4A02EB810001884288114339B1A4
:10339000817A084A1278511A782901DB00210160EC
:1033A00005490978491C044A11700349097808291C
:1033B000E3DB70470601002004010020A821002063
:1033C00010B502460023424C23701FE0404B1B788F
:1033D00003EB43033F4C04EB830003888BB143882A
:1033E0007BB113880488A3420BD153884488A3423D
:1033F00007D10B6843608B880381374B1B7883723E
:1034000010BD334B1B785B1C314C2370304B1B7849
:10341000082BDBDB00232E4C237010E02C4B1B7899
:1034200003EB43032B4C04EB8300038813B943885D
:1034300003B908E0264B1B785B1C254C2370244BFA
:103440001B78082BEADB00BF214B1B78082B34D1FB
:103450000023224C2370224C23701D4C23701DE04E
:103460001B4B1B7803EB43031A4C04EB8300837A5A
:10347000194C2478E31A194C2478A34209DD837A85
:10348000154C2478E31A154C2370114B1B78144CFF
:1034900023700F4B1B785B1C0D4C23700C4B1B785F
:1034A000082BDDDB0E4B1B78094C237023461B7861
:1034B00003EB4303074C04EB8300136803600B68C2
:1034C00043608B880381044B1B78837200BF97E7AE
:1034D00004010020A821002006010020070100208F
:1034E0000501002030B504460D4600BF3D48008868
:1034F000401C3C49088008460088B0F5FA4F02DBC2
:103500004FF48050088000203749087015E0364895
:10351000007800EB8000354901EBC002507E38B1E5
:1035200030480088FEF764FE9188884200D1DDE7CC
:103530002D480078401C2C4908702B48007828281A
:10354000E5DB002200202849087018E026480078B2
:1035500000EB8000254901EBC003587E08B91A46EC
:1035600011E0587E072805D11AB1987E917E8842D5
:1035700000DD1A461C480078401C1B4908701A4898
:1035800000782828E2DB00BF0AB9002030BD022005
:103590005076174800781073154841785173817838
:1035A0009173C178D17340F6CA7050829082012025
:1035B00010820020D0760120907603201076002023
:1035C00090751020D07507480088FEF711FE908096
:1035D000D58000BF208810806088508000BF1046D2
:1035E000D4E70000F6000020FC000020EC1A0020C8
:1035F000F20000200020164908700AE0002015495A
:10360000134A127821F8120011480078401C104922
:1036100008700F4800782828F0DB00200C4908705B
:103620000DE000200A49097801EB81010A4A02EB0A
:10363000C101487606480078401C054908700448D6
:1036400000782828EDDB4FF480600449088070473B
:10365000FC0000202C210020EC1A0020F6000020A5
:1036600010B5142206490020FEF78CFB044614B95D
:103670004FF6FF7010BD2046FEF7BAFDFAE70000D6
:10368000F60A002000210D4A117010E00C490B4A87
:10369000127831F8121029B90949084A127821F82C
:1036A0001200704705490978491C044A1170034902
:1036B00009782829EADB00BFF3E70000FC000020BE
:1036C0002C21002010B50446214602A0FEF7D0FAB6
:1036D00010BD0000754950206C6F673A25730D0AC4
:1036E0000000000010B53348007858B90120314976
:1036F000087032213048FFF7B7FB4FF47A712F483A
:10370000FFF7B2FBFFF7A4F92D49088008460088AF
:10371000002824DD4FF40060FEF76AFD29498989FD
:1037200088420BD1012000F053F82548008800287A
:103730003FDDFFF749FDFFF795F93AE040F6060057
:10374000FEF756FD1F498989884232D1FFF7C8FC30
:103750001B48008800282CDDFFF784F929E0164873
:10376000FFF770FB28B31448FFF779FB002415E03E
:1037700000BF04EB8400144901EBC000134908604A
:10378000022000F025F800BF0D480088002803DD66
:10379000FFF71AFDFFF766F9601CC4B2282CE7DBBF
:1037A0000648FFF74FFB20B10448FFF758FBFFF72F
:1037B000DBFD10BD1C0000200C00002014000020C8
:1037C000E4000020E80A0020EC1A0020EC000020B1
:1037D00070B50546FA480468FA48FB490860FB4999
:1037E0000860032D0ED1607E00F00F00032807D182
:1037F000208A28B90820F6490870FFF723FAF8E371
:1038000000F0A8BF022D73D1F248C078401CC0B2AE
:10381000F049C87078B908468078401CC0B28870FA
:1038200048B908464078401CC0B2487018B90846EC
:103830000078401C08700020E7490880E7490880AC
:10384000607E072802D0607E052808D1A07E401C3B
:10385000A076A07E782860D1002060765DE0607E52
:1038600000285AD0208A00284CD0A17E481EA0767D
:10387000002952D1E07E082808D0607E022802D0BC
:10388000607E01280FD1E07E05280CD100206076F3
:103890008020CF490870FFF7D5F91421C948363880
:1038A00080F82F10FEE3E07E042801DD042000E014
:1038B000E07E03218140A176E07E401CE076C8488E
:1038C000C08C401C81B2C648C184607E00F00F00ED
:1038D000092822D2DFE800F02105060D132114216A
:1038E000150057E30021B748363880F82F1056E30B
:1038F00014E00420B6490870FFF7A4F9DFE300BF25
:1039000000BFDDE3607E00F00F00032805D1082032
:10391000AF490870FFF796F971E771E7B048408842
:10392000401CAF494880A7483638807B45280BD0DB
:1039300008460088401C08800846C088401CC88093
:10394000A8A0FFF7BFFE5BE79E483638417C007CAD
:1039500001EB0020A0490988884208DC99483638E4
:10396000417C007C01EB00209B49088003E0A7A07C
:10397000FFF7A8FE44E793483638007D00F03F008B
:1039800018B990483638407D60B195480088401C91
:103990009349088008468089401C8881A7A0FFF7CA
:1039A00091FE2DE7AB480088AB490988884205D1D4
:1039B000A8484088A8494988884213D081483638A9
:1039C000C08BA4490988884206D17E483638008CCD
:1039D000A0494988884205D081480088401C804918
:1039E00008800DE7FFF73CFE4FF6FF7188420CD0D0
:1039F0007B480088401C7A4908800846C089401CE2
:103A0000C88196A0FFF75EFEFAE66E483638C07DA4
:103A1000062800D162E06B483638C07D01280CD002
:103A20006F480088401C6E4908800846008A401C88
:103A300008828FA0FFF746FEE2E66948808A401CB4
:103A400081B2674881825F48363890F822000828A2
:103A50000ED06348408A401C614948820846008B6A
:103A6000401C81B25E48018388A0FFF72BFEC7E6A9
:103A700000215448363880F82210808C4FF6F771B8
:103A8000884208DB4F483638808C093081B24D4877
:103A90003638818407E04B483638808C083081B254
:103AA00048483638818400BF46483638418BC18348
:103AB000818B018400BF00BF6648018841483638C9
:103AC0004183644841883F483638818300BF444879
:103AD000C08A401C81B24248C182F4E34048808BD6
:103AE000401C81B23E48818300F060FE4FF6FF71BA
:103AF00088420ED03A48408B401C394948830846DA
:103B0000008C401C81B23648018466A0FFF7DAFDC4
:103B100076E6694C1BE0607EC0B12A483638808C5E
:103B2000A188884212D127483638408CE1888842E3
:103B30000CD124483638408B2188884206D1214850
:103B40003638808B6188884200D144E228345B4853
:103B50008442E0D91B48363890F82F0000F03F002F
:103B6000022800D022E017483638808C544908805B
:103B70000020544908700EE053485249097830F843
:103B800011004F490988884200D123E14D4800784F
:103B9000401C4C4908704B4800782828ECDB104842
:103BA000408D401C81B20E48418500BF0548363823
:103BB00090F82F0000F0040000B121E686E000003C
:103BC000EC0000201E0B0020DC000020E0000020A4
:103BD000E8000020F2000020E4000020E6000020C1
:103BE0007C21002069703A20696E76616C696420DE
:103BF00076657273696F6E206F72206865616465A7
:103C000072206C656E6774682E00000069703A203F
:103C10007061636B65742073686F72746572207471
:103C200068616E207265706F7274656420696E20C1
:103C30004950206865616465722E000069703A2001
:103C4000667261676D656E742064726F7070656412
:103C50002E000000C80000202849000869703A20A2
:103C600062616420636865636B73756D2E0000008C
:103C700069703A206E65697468657220746370209B
:103C80006E6F722069636D702E00000069636D7045
:103C90003A206E6F742069636D70206563686F2EC3
:103CA000000000007463703A2062616420636865FC
:103CB000636B73756D2E0000EC1A00200421002048
:103CC000FE000020FC0000202C210020FD48808CFC
:103CD000401C81B2FB4881841421FB4880F82F10DE
:103CE0002820FA4908805021F74880F82E1090F8D3
:103CF0002900F7490870F44890F82D1080F8291031
:103D0000F3480178F04880F82D1090F82800F04929
:103D10000870ED4890F82C1080F82810EC480178D5
:103D2000E94880F82C1090F82700E9490870E64827
:103D300090F82B1080F82710E5480178E24880F8C9
:103D40002B1090F82600E2490870DF4890F82A10FE
:103D500080F82610DE480178DB4880F82A1090F8B9
:103D60002D00401CC1B2D84880F82D10B1B990F890
:103D70002C00401CC1B2D44880F82C1071B990F8C6
:103D80002B00401CC1B2D04880F82B1031B990F8FC
:103D90002A00401CC1B2CC4880F82A10CA48408C86
:103DA000CC490880C848818C4184CA480188C648EB
:103DB000818400BF418BC183818B018400BF00BF20
:103DC000C5480188C0484183C3484188BE488183B3
:103DD00000BFF5E300240020BD49087030E0BC4876
:103DE000007800EB8000BD4901EBC000407E30B997
:103DF000B748007800EB800001EBC00424E0B44831
:103E0000007800EB8000B54901EBC000407E072838
:103E100011D14CB1AE48007800EB800001EBC0003E
:103E2000807EA17E884206DDA948007800EB8000F4
:103E3000AA4901EBC004A6480078401CA4490870B8
:103E4000A34800782828CADB00BF4CB99D48008DE4
:103E5000401C81B29B480185A1A0FFF733FCCFE451
:103E6000A84804600320A07620760020A0750420D6
:103E7000E0750020E0769448808CA0809248408CC9
:103E8000E08000BF9048408B20808F48808B60800E
:103E900000BF012060769C48007820739A484178E2
:103EA00061738178A173C178E17301202082864813
:103EB00090F82910E17290F82810A17290F827105C
:103EC000617290F8260020720120FFF7E7F87E4823
:103ED00090F82E0000F0F00050285ADD00207C49B8
:103EE00008704AE07A48007836307749085C87499C
:103EF00008700846007800B94AE084480078012834
:103F000005D173480078401C7149087035E07F483E
:103F10000078022820D16E48007837306A49085C62
:103F2000042819D16A4800783930095C684800785B
:103F30003830654A105C41EA00206649088008462E
:103F4000008840F6CA71884201DD084601E06148F8
:103F500000886082A0821BE05D48007837305A49B3
:103F6000085C00B914E05A48007837305649085CBC
:103F700057490978084456490870534890F82E006C
:103F80000521C1EB201052490978B1EB800FA9DB64
:103F900000BF00BF10214C4880F82F1000BF4A48D6
:103FA00090F82F0040F00201474880F82F100221BE
:103FB00080F83610042180F837100F2180F838106F
:103FC000CA2180F839102C204049088060213E48E1
:103FD00080F82E1036E34B48046000204C490870EE
:103FE000394890F82F0000F0040060B1002060769E
:103FF00000E02FE247A0FFF765FB2020444908704E
:10400000FEF720FEA6E3304890F82E000011800055
:104010002F4908702D4800880978401A14382B4918
:104020000880607E00F00F00022806D1264890F834
:104030002F0000F03F00122822D0244800880028DA
:1040400005DC214890F82F0000F00300C0B11E48A5
:1040500090F82600217A884211D11B4890F8271049
:10406000607A81420BD1184890F82810A07A8142DA
:1040700005D1154890F82910E07A814200D0D3E2AA
:10408000114890F82F0000F01000D0B1208AC0B184
:10409000218A04F10C00FEF7C9FF0B4890F82A00B2
:1040A000264900E0C5E2097888420AD1064890F81E
:1040B0002B002249497888427ED1034840E00BE238
:1040C0006CE179E07C210020E80A0020E400002077
:1040D000FC000020FE000020C8000020EC1A002098
:1040E0007463703A20666F756E64206E6F20756E13
:1040F0007573656420636F6E6E656374696F6E734C
:104100002E000000EC000020F2000020FD00002046
:10411000E80000207463703A20676F742072657342
:1041200065742C2061626F7274696E6720636F6EB4
:104130006E656374696F6E2E00000000F800002049
:1041400090F82C00FC498978884235D1FB4890F8DA
:104150002D00F949C97888422ED1F748007820739C
:10416000F548417861738178A173C178E173E07E8D
:10417000D8B9217EA27E891A48B2A17DA0EBE101C7
:1041800048B2A17D0144A175002801DA414248B23C
:10419000E17DA0EBA10148B2E17D0144E175E17D43
:1041A000A27D01EBE201217600BF0120E449087005
:1041B000207EA07600202082607E00F00F0009287B
:1041C0006BD2DFE800F06A0525C0F4F3F2F1F000ED
:1041D000DB48007800F00100C8B103206076402081
:1041E000D749087000202082D6480088002808DDC2
:1041F0000846007840F002000870D2480088FEF7B8
:104200004DFF0020D0490880FEF71CFD22E1A1E20D
:10421000CB48007800F00100F0B3C84890F82F00B8
:1042200000F03F00122837D1C44890F82E0000F06B
:10423000F00050285EDD0020C44908704EE0C348FD
:1042400000783630BD49085CC149087008460078DE
:1042500000B94EE0BE480078012805D1BB4800787F
:10426000401CBA49087039E0B9480078022823D1C7
:10427000B64800783730B149085C04281CD1B348EF
:1042800000783930095CB14800783830AB4A105CAE
:1042900041EA0020AF4901E04BE0C3E10880084655
:1042A000008840F6CA71884201DD084601E0A9484D
:1042B00000886082A0821CE0A448007837309F49C3
:1042C000085C08B915E03CE2A048007837309B490B
:1042D000085C9E49097808449C490870974890F802
:1042E0002E000521C1EB201098490978B1EB800F11
:1042F000A5DB00BF03206076904890F8260020726E
:104300008E4890F82710617290F82810A17290F8EA
:104310002910E1720120FEF7C1FE42208849087091
:10432000002020828749088087490880FEF78AFCA0
:1043300090E0202082490870FEF784FC0020864926
:104340000968487632E47D4890F82F0000F00100BB
:1043500070B3607E00F0100050BB208A00B1F9E11C
:1043600078490988491C88B2FEF798FE744800789D
:1043700040F010007249087072480088002804DD7F
:104380000846007840F002000870FEF75BFC012050
:104390002082082060760020E07600BF1121674867
:1043A00080F82F1045E1B9E032E132E10FE1D9E0C8
:1043B000FFE7624890F82F0000F02000B8B15F4896
:1043C00090F8351090F8340041EA002063490968FC
:1043D000084462490860594890F8351090F8340054
:1043E00041EA002057490988081A5649088055486B
:1043F000008800280DDD607E00F0100048B95048AC
:10440000007840F002004E4908704E480088FEF7E0
:1044100045FE4A4890F8311090F8300001EB00203A
:104420004C490880A08A0988884202DB49480088F4
:1044300010B9A08A474908804648008860824048F1
:10444000007800F00300E8B300203F490880FEF741
:10445000F9FB00BF3A48007800F0200040B100208E
:104460003949088060761421344880F82F10E0E044
:104470003348007800F0100068B10020324908800D
:1044800001202082042060760020E07611212B4854
:1044900080F82F10CDE02C480088002819DD28482E
:1044A000007800F0010008B100202082208A68B95D
:1044B000608A25490988884202DA608A2249088090
:1044C000214800E029E00088208202E0208A1E497D
:1044D00008800020E07600BF214800681F4908607E
:1044E0001948008800280BDD208A002808DD208A72
:1044F0002830144908801821104880F82F109CE0BB
:104500000F48007800F0020038B128200D490880DB
:1045100010210A4880F82F108FE01BE1084800782E
:1045200000F0010030B100206076102004490870CE
:10453000FEF788FB76E00000F8000020E80A002083
:10454000E8000020E4000020E6000020FC0000203D
:10455000FD000020FE000020EC000020DC00002018
:10456000E00000207F480088002803DD7D480088A7
:10457000FEF794FD7C4890F82F0000F00100A8B1F0
:104580007A48007800F0010028B10720607600200A
:10459000A076208201E0062060760120FEF77EFDF5
:1045A000102072490870FEF74DFB3DE06F4800781F
:1045B00000F0010028B10520607600202082C9E0CB
:1045C00082E068480088002800DD2DE0C2E06548F0
:1045D0000088002803DD63480088FEF75FFD62481D
:1045E00090F82F0000F0010060B1072060760020F5
:1045F000A0760120FEF752FD10205C490870FEF7FE
:1046000021FB11E057480088002800DD0CE0A1E004
:104610000AE05648007800F0010018B107206076E3
:104620000020A07600BF95E010214F4880F82F10A1
:1046300000BF28204B49088000BF50214A4880F81D
:104640002E1000BF217A484880F82A10617A80F83D
:104650002B10A17A80F82C10E17A80F82D10217BA4
:1046600080F82610617B80F82710A17B80F8281045
:10467000E17B80F829100621C175A1884184E18879
:10468000818400BF3A4801883748418338484188CF
:104690003548818300BF00BF2188C18361880184C0
:1046A00000BF607E00F0100030B100212E4880F87D
:1046B000311080F8301006E00F212B4880F83010C0
:1046C000CA2180F8311000BF402127488175254854
:1046D000008801122448017422480178224841745C
:1046E000002180F8351080F83410418600F05EF823
:1046F000C04381B21C48418645201B498873002174
:104700001948C173417501751A480088401C194940
:104710000880084600880112134881741548017802
:104720001148C17400210183FEF79AFFC04381B292
:104730000D4801831048C08B401C81B20E48C183D4
:1047400000BF0D488088401C0B4988800020074925
:10475000087070BD0020034908800449087000BF3C
:10476000F7E70000E4000020E80A0020E80000204D
:10477000C8000020F00000207C21002070B5044615
:104780000D46002D0CDD07490D8007480068844266
:1047900006D008460288214603480068FBF7E4FC7F
:1047A00070BD0000E6000020E000002010B50620EB
:1047B00000F002F810BD000070B504460F48417CBF
:1047C000007C01EB0020143885B2281986B208223B
:1047D0000A491A313046FDF7D5FA06462A460749F6
:1047E00022313046FDF7CEFA064616B94FF6FF7075
:1047F00070BD3046FDF7FCFCFAE70000E80A002037
:1048000010B58CB044A207CA09AB07C3FC208DF8D1
:10481000000021208DF8010007208DF80200012002
:104820008DF803008DF804003E4800788DF80500EF
:104830003C4800788DF8060001208DF80700002024
:104840008DF8080001208DF80900AA208DF80A00D3
:10485000BB208DF80B0006208DF80C0001208DF890
:104860000D008DF80E008DF80F0005208DF810005A
:10487000A6208DF8110001208DF8120002208DF87D
:10488000130001208DF81400264800788DF81500DB
:10489000244800788DF8160001208DF81700662056
:1048A0008DF8180077208DF81900CC208DF81A00AB
:1048B000DD208DF81B0006208DF81C0001208DF8EE
:1048C0001D008DF81E008DF81F0005208DF82000BA
:1048D000A6208DF8210001208DF82200002408E098
:1048E0009DF823001DF804100844C0B28DF8230081
:1048F000641C232CF4DB24216846FDF783F9322065
:10490000FDF7B8FA092109A8FDF77CF93220FDF777
:10491000B1FA0CB010BD0000FC060644544BAABB13
:10492000500000004D00002000000000FFFFFFFFCE
:10493000FFFFFFFFFFFF0402350000015C49000894
:104940000000002014010000901C0008704A0008BC
:104950001401002084280000A01C000800000000B2
:104960000000C0A8010100000000000000000000DD
:104970000000000000000000000000000000000037
:104980000000000000000000000000000000000027
:10499000ABCDBCDE0B0000000000000000000000FA
:1049A0000000000000000000000B0A00000000FFF3
:1049B00000000000000000000000000000000000F7
:1049C00000000000000000000000000002000000E5
:1049D000000000005555000D0D0000000000000013
:1049E000770077000000660066000000000001020A
:1049F0000304010203040607080902040608000074
:104A000000A24A04000000000000000001020304AC
:104A10000607080900000000000000000000000078
:104A20000000000000000000000000000000000086
:104A30000000000000000000000000000000000076
:104A40000000000000000000000000000000000066
:104A50000000000000000000000000000000000056
:104A60000000000000000000000000000000000046
:0400000508000131BD
:00000001FF
